{
  "contractName": "BChannel",
  "abi": [
    {
      "constant": false,
      "inputs": [],
      "name": "getCID",
      "outputs": [],
      "payable": false,
      "stateMutability": "nonpayable",
      "type": "function"
    },
    {
      "constant": false,
      "inputs": [
        {
          "name": "target",
          "type": "address"
        },
        {
          "name": "role",
          "type": "uint8"
        }
      ],
      "name": "revokeRole",
      "outputs": [],
      "payable": false,
      "stateMutability": "nonpayable",
      "type": "function"
    },
    {
      "constant": false,
      "inputs": [
        {
          "name": "role",
          "type": "uint8"
        }
      ],
      "name": "requestEnroll",
      "outputs": [],
      "payable": false,
      "stateMutability": "nonpayable",
      "type": "function"
    },
    {
      "constant": true,
      "inputs": [],
      "name": "getNextIndex",
      "outputs": [
        {
          "name": "",
          "type": "uint256"
        }
      ],
      "payable": false,
      "stateMutability": "view",
      "type": "function"
    },
    {
      "constant": true,
      "inputs": [],
      "name": "D",
      "outputs": [
        {
          "name": "",
          "type": "uint8"
        }
      ],
      "payable": false,
      "stateMutability": "view",
      "type": "function"
    },
    {
      "constant": false,
      "inputs": [
        {
          "name": "dOwner",
          "type": "address"
        },
        {
          "name": "cid",
          "type": "uint8"
        },
        {
          "name": "ccid",
          "type": "string"
        },
        {
          "name": "version",
          "type": "string"
        },
        {
          "name": "category",
          "type": "string"
        },
        {
          "name": "subCategory",
          "type": "string"
        },
        {
          "name": "title",
          "type": "string"
        },
        {
          "name": "fileDetails",
          "type": "string"
        }
      ],
      "name": "registData",
      "outputs": [],
      "payable": false,
      "stateMutability": "nonpayable",
      "type": "function"
    },
    {
      "constant": false,
      "inputs": [
        {
          "name": "approve",
          "type": "bool[]"
        }
      ],
      "name": "approveRole",
      "outputs": [],
      "payable": false,
      "stateMutability": "nonpayable",
      "type": "function"
    },
    {
      "constant": false,
      "inputs": [],
      "name": "cleanupRequest",
      "outputs": [],
      "payable": false,
      "stateMutability": "nonpayable",
      "type": "function"
    },
    {
      "constant": true,
      "inputs": [],
      "name": "getTokenList",
      "outputs": [
        {
          "name": "list",
          "type": "uint256[]"
        }
      ],
      "payable": false,
      "stateMutability": "view",
      "type": "function"
    },
    {
      "constant": true,
      "inputs": [
        {
          "name": "target",
          "type": "address"
        },
        {
          "name": "role",
          "type": "uint8"
        }
      ],
      "name": "verifyRole",
      "outputs": [
        {
          "name": "",
          "type": "bool"
        }
      ],
      "payable": false,
      "stateMutability": "view",
      "type": "function"
    },
    {
      "constant": true,
      "inputs": [
        {
          "name": "ccid",
          "type": "string"
        },
        {
          "name": "version",
          "type": "string"
        },
        {
          "name": "filePath",
          "type": "string"
        }
      ],
      "name": "getFileFee",
      "outputs": [
        {
          "name": "fee",
          "type": "uint256"
        }
      ],
      "payable": false,
      "stateMutability": "view",
      "type": "function"
    },
    {
      "constant": true,
      "inputs": [],
      "name": "getProductList",
      "outputs": [
        {
          "name": "list",
          "type": "uint256[]"
        }
      ],
      "payable": false,
      "stateMutability": "view",
      "type": "function"
    },
    {
      "constant": true,
      "inputs": [
        {
          "name": "",
          "type": "address"
        },
        {
          "name": "",
          "type": "uint256"
        }
      ],
      "name": "O2Dids",
      "outputs": [
        {
          "name": "",
          "type": "uint256"
        }
      ],
      "payable": false,
      "stateMutability": "view",
      "type": "function"
    },
    {
      "constant": false,
      "inputs": [],
      "name": "unpause",
      "outputs": [],
      "payable": false,
      "stateMutability": "nonpayable",
      "type": "function"
    },
    {
      "constant": true,
      "inputs": [],
      "name": "SP",
      "outputs": [
        {
          "name": "",
          "type": "uint8"
        }
      ],
      "payable": false,
      "stateMutability": "view",
      "type": "function"
    },
    {
      "constant": true,
      "inputs": [
        {
          "name": "",
          "type": "uint256"
        }
      ],
      "name": "_Ps",
      "outputs": [
        {
          "name": "owner",
          "type": "address"
        },
        {
          "name": "ccid",
          "type": "string"
        },
        {
          "name": "version",
          "type": "string"
        },
        {
          "name": "filePath",
          "type": "string"
        },
        {
          "name": "price",
          "type": "uint256"
        }
      ],
      "payable": false,
      "stateMutability": "view",
      "type": "function"
    },
    {
      "constant": true,
      "inputs": [],
      "name": "getRequestLength",
      "outputs": [
        {
          "name": "",
          "type": "uint256"
        }
      ],
      "payable": false,
      "stateMutability": "view",
      "type": "function"
    },
    {
      "constant": true,
      "inputs": [],
      "name": "paused",
      "outputs": [
        {
          "name": "",
          "type": "bool"
        }
      ],
      "payable": false,
      "stateMutability": "view",
      "type": "function"
    },
    {
      "constant": true,
      "inputs": [
        {
          "name": "pTokenId",
          "type": "uint256"
        }
      ],
      "name": "getProductDetails",
      "outputs": [
        {
          "name": "",
          "type": "address"
        },
        {
          "name": "",
          "type": "string"
        },
        {
          "name": "",
          "type": "string"
        },
        {
          "name": "",
          "type": "string"
        },
        {
          "name": "",
          "type": "uint256"
        }
      ],
      "payable": false,
      "stateMutability": "view",
      "type": "function"
    },
    {
      "constant": false,
      "inputs": [
        {
          "name": "ccid",
          "type": "string"
        },
        {
          "name": "version",
          "type": "string"
        },
        {
          "name": "filePath",
          "type": "string"
        },
        {
          "name": "price",
          "type": "uint256"
        }
      ],
      "name": "registProduct",
      "outputs": [],
      "payable": false,
      "stateMutability": "nonpayable",
      "type": "function"
    },
    {
      "constant": true,
      "inputs": [],
      "name": "CP",
      "outputs": [
        {
          "name": "",
          "type": "uint8"
        }
      ],
      "payable": false,
      "stateMutability": "view",
      "type": "function"
    },
    {
      "constant": false,
      "inputs": [],
      "name": "renounceOwnership",
      "outputs": [],
      "payable": false,
      "stateMutability": "nonpayable",
      "type": "function"
    },
    {
      "constant": false,
      "inputs": [],
      "name": "pause",
      "outputs": [],
      "payable": false,
      "stateMutability": "nonpayable",
      "type": "function"
    },
    {
      "constant": false,
      "inputs": [
        {
          "name": "pTokenId",
          "type": "uint256"
        }
      ],
      "name": "buyProduct",
      "outputs": [],
      "payable": true,
      "stateMutability": "payable",
      "type": "function"
    },
    {
      "constant": true,
      "inputs": [],
      "name": "P",
      "outputs": [
        {
          "name": "",
          "type": "uint8"
        }
      ],
      "payable": false,
      "stateMutability": "view",
      "type": "function"
    },
    {
      "constant": true,
      "inputs": [],
      "name": "owner",
      "outputs": [
        {
          "name": "",
          "type": "address"
        }
      ],
      "payable": false,
      "stateMutability": "view",
      "type": "function"
    },
    {
      "constant": true,
      "inputs": [
        {
          "name": "uTokenId",
          "type": "uint256"
        }
      ],
      "name": "getTokenDetails",
      "outputs": [
        {
          "name": "",
          "type": "address"
        },
        {
          "name": "",
          "type": "uint256"
        },
        {
          "name": "",
          "type": "uint8"
        }
      ],
      "payable": false,
      "stateMutability": "view",
      "type": "function"
    },
    {
      "constant": true,
      "inputs": [
        {
          "name": "dataId",
          "type": "uint256"
        }
      ],
      "name": "getDataDetails",
      "outputs": [
        {
          "name": "",
          "type": "address"
        },
        {
          "name": "",
          "type": "uint8"
        },
        {
          "name": "",
          "type": "string"
        },
        {
          "name": "",
          "type": "string"
        },
        {
          "name": "",
          "type": "string"
        },
        {
          "name": "",
          "type": "string"
        },
        {
          "name": "",
          "type": "string"
        },
        {
          "name": "",
          "type": "string"
        }
      ],
      "payable": false,
      "stateMutability": "view",
      "type": "function"
    },
    {
      "constant": false,
      "inputs": [
        {
          "name": "ccid",
          "type": "string"
        },
        {
          "name": "version",
          "type": "string"
        },
        {
          "name": "filePath",
          "type": "string"
        },
        {
          "name": "fee",
          "type": "uint256"
        },
        {
          "name": "chunks",
          "type": "uint256"
        }
      ],
      "name": "registFileFee",
      "outputs": [],
      "payable": false,
      "stateMutability": "nonpayable",
      "type": "function"
    },
    {
      "constant": true,
      "inputs": [
        {
          "name": "",
          "type": "uint256"
        }
      ],
      "name": "_Ds",
      "outputs": [
        {
          "name": "owner",
          "type": "address"
        },
        {
          "name": "cid",
          "type": "uint8"
        },
        {
          "name": "ccid",
          "type": "string"
        },
        {
          "name": "version",
          "type": "string"
        },
        {
          "name": "category",
          "type": "string"
        },
        {
          "name": "subCategory",
          "type": "string"
        },
        {
          "name": "title",
          "type": "string"
        },
        {
          "name": "fileDetails",
          "type": "string"
        }
      ],
      "payable": false,
      "stateMutability": "view",
      "type": "function"
    },
    {
      "constant": true,
      "inputs": [],
      "name": "getDataList",
      "outputs": [
        {
          "name": "list",
          "type": "uint256[]"
        }
      ],
      "payable": false,
      "stateMutability": "view",
      "type": "function"
    },
    {
      "constant": false,
      "inputs": [
        {
          "name": "_newOwner",
          "type": "address"
        }
      ],
      "name": "transferOwnership",
      "outputs": [],
      "payable": false,
      "stateMutability": "nonpayable",
      "type": "function"
    },
    {
      "constant": true,
      "inputs": [
        {
          "name": "requestId",
          "type": "uint256"
        }
      ],
      "name": "getRequestDetails",
      "outputs": [
        {
          "name": "requester",
          "type": "address"
        },
        {
          "name": "role",
          "type": "uint8"
        }
      ],
      "payable": false,
      "stateMutability": "view",
      "type": "function"
    },
    {
      "anonymous": false,
      "inputs": [
        {
          "indexed": false,
          "name": "Id",
          "type": "uint256"
        }
      ],
      "name": "NewID",
      "type": "event"
    },
    {
      "anonymous": false,
      "inputs": [],
      "name": "Pause",
      "type": "event"
    },
    {
      "anonymous": false,
      "inputs": [],
      "name": "Unpause",
      "type": "event"
    },
    {
      "anonymous": false,
      "inputs": [
        {
          "indexed": true,
          "name": "previousOwner",
          "type": "address"
        }
      ],
      "name": "OwnershipRenounced",
      "type": "event"
    },
    {
      "anonymous": false,
      "inputs": [
        {
          "indexed": true,
          "name": "previousOwner",
          "type": "address"
        },
        {
          "indexed": true,
          "name": "newOwner",
          "type": "address"
        }
      ],
      "name": "OwnershipTransferred",
      "type": "event"
    },
    {
      "constant": false,
      "inputs": [
        {
          "name": "_prcieByChunk",
          "type": "uint256"
        },
        {
          "name": "_timeout",
          "type": "uint256"
        }
      ],
      "name": "setConfig",
      "outputs": [],
      "payable": false,
      "stateMutability": "nonpayable",
      "type": "function"
    },
    {
      "constant": true,
      "inputs": [
        {
          "name": "cTokenId",
          "type": "uint256"
        }
      ],
      "name": "getChannelDetails",
      "outputs": [
        {
          "name": "",
          "type": "address"
        },
        {
          "name": "",
          "type": "uint256"
        },
        {
          "name": "",
          "type": "uint256"
        },
        {
          "name": "",
          "type": "uint256"
        },
        {
          "name": "",
          "type": "int256"
        },
        {
          "name": "",
          "type": "uint8"
        }
      ],
      "payable": false,
      "stateMutability": "view",
      "type": "function"
    },
    {
      "constant": true,
      "inputs": [
        {
          "name": "uTokenId",
          "type": "uint256"
        }
      ],
      "name": "getDepositAmount",
      "outputs": [
        {
          "name": "amount",
          "type": "uint256"
        }
      ],
      "payable": false,
      "stateMutability": "view",
      "type": "function"
    },
    {
      "constant": false,
      "inputs": [
        {
          "name": "uTokenId",
          "type": "uint256"
        }
      ],
      "name": "channelOpen",
      "outputs": [],
      "payable": true,
      "stateMutability": "payable",
      "type": "function"
    },
    {
      "constant": false,
      "inputs": [
        {
          "name": "cTokenId",
          "type": "uint256"
        }
      ],
      "name": "channelOff",
      "outputs": [],
      "payable": false,
      "stateMutability": "nonpayable",
      "type": "function"
    },
    {
      "constant": false,
      "inputs": [
        {
          "name": "cTokenId",
          "type": "uint256"
        },
        {
          "name": "contributors",
          "type": "address[]"
        },
        {
          "name": "chunks",
          "type": "uint256[]"
        }
      ],
      "name": "settleChannel",
      "outputs": [],
      "payable": false,
      "stateMutability": "nonpayable",
      "type": "function"
    }
  ],
  "bytecode": "0x608060405260008060146101000a81548160ff021916908315150217905550600060035560006004556001600560006101000a81548160ff021916908360ff1602179055506002600560016101000a81548160ff021916908360ff1602179055506004600560026101000a81548160ff021916908360ff1602179055506008600560036101000a81548160ff021916908360ff1602179055506000600f60006101000a81548160ff021916908360ff160217905550600060105562015180601155336000806101000a81548173ffffffffffffffffffffffffffffffffffffffff021916908373ffffffffffffffffffffffffffffffffffffffff1602179055506159fc8061010f6000396000f3006080604052600436106101e3576000357c0100000000000000000000000000000000000000000000000000000000900463ffffffff16806302790e34146101e8578063077d3c03146101ff5780630ab0691a1461024f5780630eb7606f1461027f5780630f529ba2146102aa57806314412550146102db57806316fb2626146102fb5780631e34c585146104ef57806320c103291461052657806326be85af1461058c578063273cbaa0146105a3578063298c5e1c1461060f5780632f8add581461067757806334d2c0ad14610780578063355500c2146107ec578063378de45b1461084d5780633f4ba83a1461088e5780634426ebd0146108a557806348022c52146108d657806353bf1de014610a8e5780635c975abb14610ab95780636813b53b14610ae857806368f3b47714610ca05780636c3172a514610d9f578063715018a614610dd05780638456cb5914610de75780638642269e14610dfe5780638b8fbd9214610e1e5780638da5cb5b14610e4f578063b8ad5bec14610ea6578063c1e0372814610f3c578063c7cd331014610fbd578063de5f8227146112bf578063de8399a9146113c8578063e17fb29b14611425578063ea946b5614611727578063f1feaf6f14611754578063f2fde38b146117c0578063f34d4c6314611803575b600080fd5b3480156101f457600080fd5b506101fd61187d565b005b34801561020b57600080fd5b5061024d600480360381019080803573ffffffffffffffffffffffffffffffffffffffff169060200190929190803560ff1690602001909291905050506119a2565b005b34801561025b57600080fd5b5061027d600480360381019080803560ff169060200190929190505050611ac5565b005b34801561028b57600080fd5b50610294611bb6565b6040518082815260200191505060405180910390f35b3480156102b657600080fd5b506102bf611c1b565b604051808260ff1660ff16815260200191505060405180910390f35b6102f960048036038101908080359060200190929190505050611c2e565b005b34801561030757600080fd5b506104ed600480360381019080803573ffffffffffffffffffffffffffffffffffffffff169060200190929190803560ff169060200190929190803590602001908201803590602001908080601f0160208091040260200160405190810160405280939291908181526020018383808284378201915050505050509192919290803590602001908201803590602001908080601f0160208091040260200160405190810160405280939291908181526020018383808284378201915050505050509192919290803590602001908201803590602001908080601f0160208091040260200160405190810160405280939291908181526020018383808284378201915050505050509192919290803590602001908201803590602001908080601f0160208091040260200160405190810160405280939291908181526020018383808284378201915050505050509192919290803590602001908201803590602001908080601f0160208091040260200160405190810160405280939291908181526020018383808284378201915050505050509192919290803590602001908201803590602001908080601f0160208091040260200160405190810160405280939291908181526020018383808284378201915050505050509192919290505050611eee565b005b3480156104fb57600080fd5b5061052460048036038101908080359060200190929190803590602001909291905050506123d7565b005b34801561053257600080fd5b5061058a60048036038101908080359060200190820180359060200190808060200260200160405190810160405280939291908181526020018383602002808284378201915050505050509192919290505050612444565b005b34801561059857600080fd5b506105a16125f3565b005b3480156105af57600080fd5b506105b86126ea565b6040518080602001828103825283818151815260200191508051906020019060200280838360005b838110156105fb5780820151818401526020810190506105e0565b505050509050019250505060405180910390f35b34801561061b57600080fd5b5061065d600480360381019080803573ffffffffffffffffffffffffffffffffffffffff169060200190929190803560ff16906020019092919050505061277f565b604051808215151515815260200191505060405180910390f35b34801561068357600080fd5b5061076a600480360381019080803590602001908201803590602001908080601f0160208091040260200160405190810160405280939291908181526020018383808284378201915050505050509192919290803590602001908201803590602001908080601f0160208091040260200160405190810160405280939291908181526020018383808284378201915050505050509192919290803590602001908201803590602001908080601f016020809104026020016040519081016040528093929190818152602001838380828437820191505050505050919291929050505061281a565b6040518082815260200191505060405180910390f35b34801561078c57600080fd5b50610795612854565b6040518080602001828103825283818151815260200191508051906020019060200280838360005b838110156107d85780820151818401526020810190506107bd565b505050509050019250505060405180910390f35b3480156107f857600080fd5b50610837600480360381019080803573ffffffffffffffffffffffffffffffffffffffff169060200190929190803590602001909291905050506128e9565b6040518082815260200191505060405180910390f35b34801561085957600080fd5b5061087860048036038101908080359060200190929190505050612919565b6040518082815260200191505060405180910390f35b34801561089a57600080fd5b506108a3612ced565b005b3480156108b157600080fd5b506108ba612dab565b604051808260ff1660ff16815260200191505060405180910390f35b3480156108e257600080fd5b5061090160048036038101908080359060200190929190505050612dbe565b604051808673ffffffffffffffffffffffffffffffffffffffff1673ffffffffffffffffffffffffffffffffffffffff168152602001806020018060200180602001858152602001848103845288818151815260200191508051906020019080838360005b83811015610981578082015181840152602081019050610966565b50505050905090810190601f1680156109ae5780820380516001836020036101000a031916815260200191505b50848103835287818151815260200191508051906020019080838360005b838110156109e75780820151818401526020810190506109cc565b50505050905090810190601f168015610a145780820380516001836020036101000a031916815260200191505b50848103825286818151815260200191508051906020019080838360005b83811015610a4d578082015181840152602081019050610a32565b50505050905090810190601f168015610a7a5780820380516001836020036101000a031916815260200191505b509850505050505050505060405180910390f35b348015610a9a57600080fd5b50610aa3612feb565b6040518082815260200191505060405180910390f35b348015610ac557600080fd5b50610ace613050565b604051808215151515815260200191505060405180910390f35b348015610af457600080fd5b50610b1360048036038101908080359060200190929190505050613063565b604051808673ffffffffffffffffffffffffffffffffffffffff1673ffffffffffffffffffffffffffffffffffffffff168152602001806020018060200180602001858152602001848103845288818151815260200191508051906020019080838360005b83811015610b93578082015181840152602081019050610b78565b50505050905090810190601f168015610bc05780820380516001836020036101000a031916815260200191505b50848103835287818151815260200191508051906020019080838360005b83811015610bf9578082015181840152602081019050610bde565b50505050905090810190601f168015610c265780820380516001836020036101000a031916815260200191505b50848103825286818151815260200191508051906020019080838360005b83811015610c5f578082015181840152602081019050610c44565b50505050905090810190601f168015610c8c5780820380516001836020036101000a031916815260200191505b509850505050505050505060405180910390f35b348015610cac57600080fd5b50610d9d600480360381019080803590602001908201803590602001908080601f0160208091040260200160405190810160405280939291908181526020018383808284378201915050505050509192919290803590602001908201803590602001908080601f0160208091040260200160405190810160405280939291908181526020018383808284378201915050505050509192919290803590602001908201803590602001908080601f016020809104026020016040519081016040528093929190818152602001838380828437820191505050505050919291929080359060200190929190505050613399565b005b348015610dab57600080fd5b50610db4613609565b604051808260ff1660ff16815260200191505060405180910390f35b348015610ddc57600080fd5b50610de561361c565b005b348015610df357600080fd5b50610dfc61371e565b005b610e1c600480360381019080803590602001909291905050506137de565b005b348015610e2a57600080fd5b50610e33613dd6565b604051808260ff1660ff16815260200191505060405180910390f35b348015610e5b57600080fd5b50610e64613de9565b604051808273ffffffffffffffffffffffffffffffffffffffff1673ffffffffffffffffffffffffffffffffffffffff16815260200191505060405180910390f35b348015610eb257600080fd5b50610ed160048036038101908080359060200190929190505050613e0e565b604051808773ffffffffffffffffffffffffffffffffffffffff1673ffffffffffffffffffffffffffffffffffffffff1681526020018681526020018581526020018481526020018381526020018260ff1660ff168152602001965050505050505060405180910390f35b348015610f4857600080fd5b50610f6760048036038101908080359060200190929190505050613fb1565b604051808473ffffffffffffffffffffffffffffffffffffffff1673ffffffffffffffffffffffffffffffffffffffff1681526020018381526020018260ff1660ff168152602001935050505060405180910390f35b348015610fc957600080fd5b50610fe860048036038101908080359060200190929190505050614156565b604051808973ffffffffffffffffffffffffffffffffffffffff1673ffffffffffffffffffffffffffffffffffffffff1681526020018860ff1660ff16815260200180602001806020018060200180602001806020018060200187810387528d818151815260200191508051906020019080838360005b8381101561107a57808201518184015260208101905061105f565b50505050905090810190601f1680156110a75780820380516001836020036101000a031916815260200191505b5087810386528c818151815260200191508051906020019080838360005b838110156110e05780820151818401526020810190506110c5565b50505050905090810190601f16801561110d5780820380516001836020036101000a031916815260200191505b5087810385528b818151815260200191508051906020019080838360005b8381101561114657808201518184015260208101905061112b565b50505050905090810190601f1680156111735780820380516001836020036101000a031916815260200191505b5087810384528a818151815260200191508051906020019080838360005b838110156111ac578082015181840152602081019050611191565b50505050905090810190601f1680156111d95780820380516001836020036101000a031916815260200191505b50878103835289818151815260200191508051906020019080838360005b838110156112125780820151818401526020810190506111f7565b50505050905090810190601f16801561123f5780820380516001836020036101000a031916815260200191505b50878103825288818151815260200191508051906020019080838360005b8381101561127857808201518184015260208101905061125d565b50505050905090810190601f1680156112a55780820380516001836020036101000a031916815260200191505b509e50505050505050505050505050505060405180910390f35b3480156112cb57600080fd5b506113c6600480360381019080803590602001908201803590602001908080601f0160208091040260200160405190810160405280939291908181526020018383808284378201915050505050509192919290803590602001908201803590602001908080601f0160208091040260200160405190810160405280939291908181526020018383808284378201915050505050509192919290803590602001908201803590602001908080601f016020809104026020016040519081016040528093929190818152602001838380828437820191505050505050919291929080359060200190929190803590602001909291905050506146a7565b005b3480156113d457600080fd5b506114236004803603810190808035906020019092919080359060200190820180359060200191909192939192939080359060200190820180359060200191909192939192939050505061497e565b005b34801561143157600080fd5b5061145060048036038101908080359060200190929190505050614c70565b604051808973ffffffffffffffffffffffffffffffffffffffff1673ffffffffffffffffffffffffffffffffffffffff1681526020018860ff1660ff16815260200180602001806020018060200180602001806020018060200187810387528d818151815260200191508051906020019080838360005b838110156114e25780820151818401526020810190506114c7565b50505050905090810190601f16801561150f5780820380516001836020036101000a031916815260200191505b5087810386528c818151815260200191508051906020019080838360005b8381101561154857808201518184015260208101905061152d565b50505050905090810190601f1680156115755780820380516001836020036101000a031916815260200191505b5087810385528b818151815260200191508051906020019080838360005b838110156115ae578082015181840152602081019050611593565b50505050905090810190601f1680156115db5780820380516001836020036101000a031916815260200191505b5087810384528a818151815260200191508051906020019080838360005b838110156116145780820151818401526020810190506115f9565b50505050905090810190601f1680156116415780820380516001836020036101000a031916815260200191505b50878103835289818151815260200191508051906020019080838360005b8381101561167a57808201518184015260208101905061165f565b50505050905090810190601f1680156116a75780820380516001836020036101000a031916815260200191505b50878103825288818151815260200191508051906020019080838360005b838110156116e05780820151818401526020810190506116c5565b50505050905090810190601f16801561170d5780820380516001836020036101000a031916815260200191505b509e50505050505050505050505050505060405180910390f35b34801561173357600080fd5b5061175260048036038101908080359060200190929190505050615084565b005b34801561176057600080fd5b506117696151cb565b6040518080602001828103825283818151815260200191508051906020019060200280838360005b838110156117ac578082015181840152602081019050611791565b505050509050019250505060405180910390f35b3480156117cc57600080fd5b50611801600480360381019080803573ffffffffffffffffffffffffffffffffffffffff169060200190929190505050615260565b005b34801561180f57600080fd5b5061182e600480360381019080803590602001909291905050506152c7565b604051808373ffffffffffffffffffffffffffffffffffffffff1673ffffffffffffffffffffffffffffffffffffffff1681526020018260ff1660ff1681526020019250505060405180910390f35b61189633600560009054906101000a900460ff1661277f565b806118b657506118b533600560019054906101000a900460ff1661277f565b5b15156118c157600080fd5b3360066000600f60009054906101000a900460ff1660ff16815260200190815260200160002060006101000a81548173ffffffffffffffffffffffffffffffffffffffff021916908373ffffffffffffffffffffffffffffffffffffffff1602179055507f8194fef2fa29f8e48a9d50b3f7497b89c75bae0b69eba16f5ac0e0b9bf15ead6600f60009054906101000a900460ff16604051808260ff16815260200191505060405180910390a1600f600081819054906101000a900460ff168092919060010191906101000a81548160ff021916908360ff16021790555050565b60008060009054906101000a900473ffffffffffffffffffffffffffffffffffffffff1673ffffffffffffffffffffffffffffffffffffffff163373ffffffffffffffffffffffffffffffffffffffff161415156119ff57600080fd5b600260008473ffffffffffffffffffffffffffffffffffffffff1673ffffffffffffffffffffffffffffffffffffffff16815260200190815260200160002060009054906101000a900460ff169050600082821660ff1614151515611a6357600080fd5b81600f188116600260008573ffffffffffffffffffffffffffffffffffffffff1673ffffffffffffffffffffffffffffffffffffffff16815260200190815260200160002060006101000a81548160ff021916908360ff160217905550505050565b600060149054906101000a900460ff16151515611ae157600080fd5b60108160ff16101515611af357600080fd5b60408051908101604052803373ffffffffffffffffffffffffffffffffffffffff1681526020018260ff1681525060016000600454815260200190815260200160002060008201518160000160006101000a81548173ffffffffffffffffffffffffffffffffffffffff021916908373ffffffffffffffffffffffffffffffffffffffff16021790555060208201518160000160146101000a81548160ff021916908360ff16021790555090505060046000815480929190600101919050555050565b60008060009054906101000a900473ffffffffffffffffffffffffffffffffffffffff1673ffffffffffffffffffffffffffffffffffffffff163373ffffffffffffffffffffffffffffffffffffffff16141515611c1357600080fd5b600354905090565b600560039054906101000a900460ff1681565b600081600073ffffffffffffffffffffffffffffffffffffffff163373ffffffffffffffffffffffffffffffffffffffff1614151515611c6d57600080fd5b3373ffffffffffffffffffffffffffffffffffffffff16600e82815481101515611c9357fe5b906000526020600020906003020160000160009054906101000a900473ffffffffffffffffffffffffffffffffffffffff1673ffffffffffffffffffffffffffffffffffffffff16141515611ce757600080fd5b8260016002811115611cf557fe5b600e82815481101515611d0457fe5b906000526020600020906003020160020160009054906101000a900460ff166002811115611d2e57fe5b141515611d3a57600080fd5b34611d4485612919565b11151515611d5157600080fd5b6001601260c0604051908101604052803373ffffffffffffffffffffffffffffffffffffffff168152602001878152602001348152602001428152602001601154815260200160016003811115611da457fe5b8152509080600181540180825580915050906001820390600052602060002090600602016000909192909190915060008201518160000160006101000a81548173ffffffffffffffffffffffffffffffffffffffff021916908373ffffffffffffffffffffffffffffffffffffffff1602179055506020820151816001015560408201518160020155606082015181600301556080820151816004015560a08201518160050160006101000a81548160ff02191690836003811115611e6557fe5b021790555050500392506002600e85815481101515611e8057fe5b906000526020600020906003020160020160006101000a81548160ff02191690836002811115611eac57fe5b02179055507f8194fef2fa29f8e48a9d50b3f7497b89c75bae0b69eba16f5ac0e0b9bf15ead6836040518082815260200191505060405180910390a150505050565b611ef66157c7565b600089600560019054906101000a900460ff16600073ffffffffffffffffffffffffffffffffffffffff168273ffffffffffffffffffffffffffffffffffffffff1614151515611f4557600080fd5b611f4f828261277f565b1515611f5a57600080fd5b611f7333600560009054906101000a900460ff1661277f565b80611fca5750611f9233600560019054906101000a900460ff1661277f565b8015611fc957508b73ffffffffffffffffffffffffffffffffffffffff163373ffffffffffffffffffffffffffffffffffffffff16145b5b1515611fd557600080fd5b600660008c60ff16815260200190815260200160002060009054906101000a900473ffffffffffffffffffffffffffffffffffffffff1673ffffffffffffffffffffffffffffffffffffffff163373ffffffffffffffffffffffffffffffffffffffff1614151561204557600080fd5b610100604051908101604052808d73ffffffffffffffffffffffffffffffffffffffff1681526020018c60ff1681526020018b81526020018a81526020018981526020018881526020018781526020018681525093506001600c859080600181540180825580915050906001820390600052602060002090600702016000909192909190915060008201518160000160006101000a81548173ffffffffffffffffffffffffffffffffffffffff021916908373ffffffffffffffffffffffffffffffffffffffff16021790555060208201518160000160146101000a81548160ff021916908360ff160217905550604082015181600101908051906020019061214f929190615826565b50606082015181600201908051906020019061216c929190615826565b506080820151816003019080519060200190612189929190615826565b5060a08201518160040190805190602001906121a6929190615826565b5060c08201518160050190805190602001906121c3929190615826565b5060e08201518160060190805190602001906121e0929190615826565b505050039250600760008d73ffffffffffffffffffffffffffffffffffffffff1673ffffffffffffffffffffffffffffffffffffffff16815260200190815260200160002083908060018154018082558091505090600182039060005260206000200160009091929091909150555082600860008c8c6040516020018083805190602001908083835b60208310151561228e5780518252602082019150602081019050602083039250612269565b6001836020036101000a03801982511681845116808217855250505050505090500182805190602001908083835b6020831015156122e157805182526020820191506020810190506020830392506122bc565b6001836020036101000a038019825116818451168082178552505050505050905001925050506040516020818303038152906040526040518082805190602001908083835b60208310151561234b5780518252602082019150602081019050602083039250612326565b6001836020036101000a038019825116818451168082178552505050505050905001915050604051809103902060001916600019168152602001908152602001600020819055507f8194fef2fa29f8e48a9d50b3f7497b89c75bae0b69eba16f5ac0e0b9bf15ead6836040518082815260200191505060405180910390a1505050505050505050505050565b6000809054906101000a900473ffffffffffffffffffffffffffffffffffffffff1673ffffffffffffffffffffffffffffffffffffffff163373ffffffffffffffffffffffffffffffffffffffff1614151561243257600080fd5b81601081905550806011819055505050565b60008060009054906101000a900473ffffffffffffffffffffffffffffffffffffffff1673ffffffffffffffffffffffffffffffffffffffff163373ffffffffffffffffffffffffffffffffffffffff161415156124a157600080fd5b600060149054906101000a900460ff161515156124bd57600080fd5b600454825160035401111515156124d357600080fd5b600090505b81518110156125de576001151582828151811015156124f357fe5b90602001906020020151151514156125d157600160008260035401815260200190815260200160002060000160149054906101000a900460ff1660026000600160008560035401815260200190815260200160002060000160009054906101000a900473ffffffffffffffffffffffffffffffffffffffff1673ffffffffffffffffffffffffffffffffffffffff1673ffffffffffffffffffffffffffffffffffffffff16815260200190815260200160002060008282829054906101000a900460ff161792506101000a81548160ff021916908360ff1602179055505b80806001019150506124d8565b81516003600082825401925050819055505050565b60008060009054906101000a900473ffffffffffffffffffffffffffffffffffffffff1673ffffffffffffffffffffffffffffffffffffffff163373ffffffffffffffffffffffffffffffffffffffff1614151561265057600080fd5b61265861371e565b600090505b6003548110156126c55760016000828152602001908152602001600020600080820160006101000a81549073ffffffffffffffffffffffffffffffffffffffff02191690556000820160146101000a81549060ff02191690555050808060010191505061265d565b60035460046000828254039250508190555060006003819055506126e7612ced565b50565b6060600b60003373ffffffffffffffffffffffffffffffffffffffff1673ffffffffffffffffffffffffffffffffffffffff16815260200190815260200160002080548060200260200160405190810160405280929190818152602001828054801561277557602002820191906000526020600020905b815481526020019060010190808311612761575b5050505050905090565b60008073ffffffffffffffffffffffffffffffffffffffff168373ffffffffffffffffffffffffffffffffffffffff16141515156127bc57600080fd5b600082600260008673ffffffffffffffffffffffffffffffffffffffff1673ffffffffffffffffffffffffffffffffffffffff16815260200190815260200160002060009054906101000a900460ff161660ff161415905092915050565b600083838361282a8383836153a5565b60400151151561283957600080fd5b6128448787876153a5565b6000015193505050509392505050565b6060600a60003373ffffffffffffffffffffffffffffffffffffffff1673ffffffffffffffffffffffffffffffffffffffff1681526020019081526020016000208054806020026020016040519081016040528092919081815260200182805480156128df57602002820191906000526020600020905b8154815260200190600101908083116128cb575b5050505050905090565b60076020528160005260406000208181548110151561290457fe5b90600052602060002001600091509150505481565b60006129236158a6565b600083600073ffffffffffffffffffffffffffffffffffffffff163373ffffffffffffffffffffffffffffffffffffffff161415151561296257600080fd5b3373ffffffffffffffffffffffffffffffffffffffff16600e8281548110151561298857fe5b906000526020600020906003020160000160009054906101000a900473ffffffffffffffffffffffffffffffffffffffff1673ffffffffffffffffffffffffffffffffffffffff161415156129dc57600080fd5b84600160028111156129ea57fe5b600e828154811015156129f957fe5b906000526020600020906003020160020160009054906101000a900460ff166002811115612a2357fe5b141515612a2f57600080fd5b600d600e87815481101515612a4057fe5b906000526020600020906003020160010154815481101515612a5e57fe5b906000526020600020906005020160a060405190810160405290816000820160009054906101000a900473ffffffffffffffffffffffffffffffffffffffff1673ffffffffffffffffffffffffffffffffffffffff1673ffffffffffffffffffffffffffffffffffffffff168152602001600182018054600181600116156101000203166002900480601f016020809104026020016040519081016040528092919081815260200182805460018160011615610100020316600290048015612b675780601f10612b3c57610100808354040283529160200191612b67565b820191906000526020600020905b815481529060010190602001808311612b4a57829003601f168201915b50505050508152602001600282018054600181600116156101000203166002900480601f016020809104026020016040519081016040528092919081815260200182805460018160011615610100020316600290048015612c095780601f10612bde57610100808354040283529160200191612c09565b820191906000526020600020905b815481529060010190602001808311612bec57829003601f168201915b50505050508152602001600382018054600181600116156101000203166002900480601f016020809104026020016040519081016040528092919081815260200182805460018160011615610100020316600290048015612cab5780601f10612c8057610100808354040283529160200191612cab565b820191906000526020600020905b815481529060010190602001808311612c8e57829003601f168201915b505050505081526020016004820154815250509350612cd78460200151856040015186606001516153a5565b6020015192506010548302945050505050919050565b6000809054906101000a900473ffffffffffffffffffffffffffffffffffffffff1673ffffffffffffffffffffffffffffffffffffffff163373ffffffffffffffffffffffffffffffffffffffff16141515612d4857600080fd5b600060149054906101000a900460ff161515612d6357600080fd5b60008060146101000a81548160ff0219169083151502179055507f7805862f689e2f13df9f062ff482ad3ad112aca9e0847911ed832e158c525b3360405160405180910390a1565b600560029054906101000a900460ff1681565b600d81815481101515612dcd57fe5b90600052602060002090600502016000915090508060000160009054906101000a900473ffffffffffffffffffffffffffffffffffffffff1690806001018054600181600116156101000203166002900480601f016020809104026020016040519081016040528092919081815260200182805460018160011615610100020316600290048015612e9f5780601f10612e7457610100808354040283529160200191612e9f565b820191906000526020600020905b815481529060010190602001808311612e8257829003601f168201915b505050505090806002018054600181600116156101000203166002900480601f016020809104026020016040519081016040528092919081815260200182805460018160011615610100020316600290048015612f3d5780601f10612f1257610100808354040283529160200191612f3d565b820191906000526020600020905b815481529060010190602001808311612f2057829003601f168201915b505050505090806003018054600181600116156101000203166002900480601f016020809104026020016040519081016040528092919081815260200182805460018160011615610100020316600290048015612fdb5780601f10612fb057610100808354040283529160200191612fdb565b820191906000526020600020905b815481529060010190602001808311612fbe57829003601f168201915b5050505050908060040154905085565b60008060009054906101000a900473ffffffffffffffffffffffffffffffffffffffff1673ffffffffffffffffffffffffffffffffffffffff163373ffffffffffffffffffffffffffffffffffffffff1614151561304857600080fd5b600454905090565b600060149054906101000a900460ff1681565b6000606080606060006130746158a6565b86600073ffffffffffffffffffffffffffffffffffffffff16600d8281548110151561309c57fe5b906000526020600020906005020160000160009054906101000a900473ffffffffffffffffffffffffffffffffffffffff1673ffffffffffffffffffffffffffffffffffffffff16141515156130f157600080fd5b600d8881548110151561310057fe5b906000526020600020906005020160a060405190810160405290816000820160009054906101000a900473ffffffffffffffffffffffffffffffffffffffff1673ffffffffffffffffffffffffffffffffffffffff1673ffffffffffffffffffffffffffffffffffffffff168152602001600182018054600181600116156101000203166002900480601f0160208091040260200160405190810160405280929190818152602001828054600181600116156101000203166002900480156132095780601f106131de57610100808354040283529160200191613209565b820191906000526020600020905b8154815290600101906020018083116131ec57829003601f168201915b50505050508152602001600282018054600181600116156101000203166002900480601f0160208091040260200160405190810160405280929190818152602001828054600181600116156101000203166002900480156132ab5780601f10613280576101008083540402835291602001916132ab565b820191906000526020600020905b81548152906001019060200180831161328e57829003601f168201915b50505050508152602001600382018054600181600116156101000203166002900480601f01602080910402602001604051908101604052809291908181526020018280546001816001161561010002031660029004801561334d5780601f106133225761010080835404028352916020019161334d565b820191906000526020600020905b81548152906001019060200180831161333057829003601f168201915b5050505050815260200160048201548152505091508160000151826020015183604001518460600151856080015183935082925081915096509650965096509650505091939590929450565b6133a16158a6565b600033600560039054906101000a900460ff16600073ffffffffffffffffffffffffffffffffffffffff168273ffffffffffffffffffffffffffffffffffffffff16141515156133f057600080fd5b6133fa828261277f565b151561340557600080fd5b8787876134138383836153a5565b60400151151561342257600080fd5b8761342e8c8c8c6153a5565b600001511115151561343f57600080fd5b60a0604051908101604052803373ffffffffffffffffffffffffffffffffffffffff1681526020018c81526020018b81526020018a81526020018981525096506001600d889080600181540180825580915050906001820390600052602060002090600502016000909192909190915060008201518160000160006101000a81548173ffffffffffffffffffffffffffffffffffffffff021916908373ffffffffffffffffffffffffffffffffffffffff1602179055506020820151816001019080519060200190613512929190615826565b50604082015181600201908051906020019061352f929190615826565b50606082015181600301908051906020019061354c929190615826565b50608082015181600401555050039550600a60003373ffffffffffffffffffffffffffffffffffffffff1673ffffffffffffffffffffffffffffffffffffffff1681526020019081526020016000208690806001815401808255809150509060018203906000526020600020016000909192909190915055507f8194fef2fa29f8e48a9d50b3f7497b89c75bae0b69eba16f5ac0e0b9bf15ead6866040518082815260200191505060405180910390a15050505050505050505050565b600560019054906101000a900460ff1681565b6000809054906101000a900473ffffffffffffffffffffffffffffffffffffffff1673ffffffffffffffffffffffffffffffffffffffff163373ffffffffffffffffffffffffffffffffffffffff1614151561367757600080fd5b6000809054906101000a900473ffffffffffffffffffffffffffffffffffffffff1673ffffffffffffffffffffffffffffffffffffffff167ff8df31144d9c2f0f6b59d69b8b98abd5459d07f2742c4df920b25aae33c6482060405160405180910390a260008060006101000a81548173ffffffffffffffffffffffffffffffffffffffff021916908373ffffffffffffffffffffffffffffffffffffffff160217905550565b6000809054906101000a900473ffffffffffffffffffffffffffffffffffffffff1673ffffffffffffffffffffffffffffffffffffffff163373ffffffffffffffffffffffffffffffffffffffff1614151561377957600080fd5b600060149054906101000a900460ff1615151561379557600080fd5b6001600060146101000a81548160ff0219169083151502179055507f6985a02210a168e66602d3235cb6db0e70f92b3ba4d376a33c0f3d9434bff62560405160405180910390a1565b6137e66158a6565b600080600084600073ffffffffffffffffffffffffffffffffffffffff16600d8281548110151561381357fe5b906000526020600020906005020160000160009054906101000a900473ffffffffffffffffffffffffffffffffffffffff1673ffffffffffffffffffffffffffffffffffffffff161415151561386857600080fd5b600d8681548110151561387757fe5b906000526020600020906005020160a060405190810160405290816000820160009054906101000a900473ffffffffffffffffffffffffffffffffffffffff1673ffffffffffffffffffffffffffffffffffffffff1673ffffffffffffffffffffffffffffffffffffffff168152602001600182018054600181600116156101000203166002900480601f0160208091040260200160405190810160405280929190818152602001828054600181600116156101000203166002900480156139805780601f1061395557610100808354040283529160200191613980565b820191906000526020600020905b81548152906001019060200180831161396357829003601f168201915b50505050508152602001600282018054600181600116156101000203166002900480601f016020809104026020016040519081016040528092919081815260200182805460018160011615610100020316600290048015613a225780601f106139f757610100808354040283529160200191613a22565b820191906000526020600020905b815481529060010190602001808311613a0557829003601f168201915b50505050508152602001600382018054600181600116156101000203166002900480601f016020809104026020016040519081016040528092919081815260200182805460018160011615610100020316600290048015613ac45780601f10613a9957610100808354040283529160200191613ac4565b820191906000526020600020905b815481529060010190602001808311613aa757829003601f168201915b50505050508152602001600482015481525050945084608001513410151515613aec57600080fd5b6001600e6060604051908101604052803373ffffffffffffffffffffffffffffffffffffffff16815260200189815260200160016002811115613b2b57fe5b8152509080600181540180825580915050906001820390600052602060002090600302016000909192909190915060008201518160000160006101000a81548173ffffffffffffffffffffffffffffffffffffffff021916908373ffffffffffffffffffffffffffffffffffffffff1602179055506020820151816001015560408201518160020160006101000a81548160ff02191690836002811115613bce57fe5b02179055505050039350600b60003373ffffffffffffffffffffffffffffffffffffffff1673ffffffffffffffffffffffffffffffffffffffff168152602001908152602001600020849080600181540180825580915050906001820390600052602060002001600090919290919091505550600c613c5586602001518760400151615584565b815481101515613c6157fe5b906000526020600020906007020160000160009054906101000a900473ffffffffffffffffffffffffffffffffffffffff169250613cac8560200151866040015187606001516153a5565b6000015191508273ffffffffffffffffffffffffffffffffffffffff166108fc839081150290604051600060405180830381858888f19350505050158015613cf8573d6000803e3d6000fd5b50846000015173ffffffffffffffffffffffffffffffffffffffff166108fc838760800151039081150290604051600060405180830381858888f19350505050158015613d49573d6000803e3d6000fd5b503373ffffffffffffffffffffffffffffffffffffffff166108fc866080015134039081150290604051600060405180830381858888f19350505050158015613d96573d6000803e3d6000fd5b507f8194fef2fa29f8e48a9d50b3f7497b89c75bae0b69eba16f5ac0e0b9bf15ead6846040518082815260200191505060405180910390a1505050505050565b600560009054906101000a900460ff1681565b6000809054906101000a900473ffffffffffffffffffffffffffffffffffffffff1681565b600080600080600080613e1f6158ec565b8760006003811115613e2d57fe5b601282815481101515613e3c57fe5b906000526020600020906006020160050160009054906101000a900460ff166003811115613e6657fe5b14151515613e7357600080fd5b601289815481101515613e8257fe5b906000526020600020906006020160c060405190810160405290816000820160009054906101000a900473ffffffffffffffffffffffffffffffffffffffff1673ffffffffffffffffffffffffffffffffffffffff1673ffffffffffffffffffffffffffffffffffffffff168152602001600182015481526020016002820154815260200160038201548152602001600482015481526020016005820160009054906101000a900460ff166003811115613f3857fe5b6003811115613f4357fe5b8152505091508160000151600e8360200151815481101515613f6157fe5b90600052602060002090600302016001015483604001518460600151856060015142038660800151038660a001516003811115613f9a57fe5b975097509750975097509750505091939550919395565b6000806000613fbe615944565b84600073ffffffffffffffffffffffffffffffffffffffff163373ffffffffffffffffffffffffffffffffffffffff1614151515613ffb57600080fd5b3373ffffffffffffffffffffffffffffffffffffffff16600e8281548110151561402157fe5b906000526020600020906003020160000160009054906101000a900473ffffffffffffffffffffffffffffffffffffffff1673ffffffffffffffffffffffffffffffffffffffff1614151561407557600080fd5b600e8681548110151561408457fe5b9060005260206000209060030201606060405190810160405290816000820160009054906101000a900473ffffffffffffffffffffffffffffffffffffffff1673ffffffffffffffffffffffffffffffffffffffff1673ffffffffffffffffffffffffffffffffffffffff168152602001600182015481526020016002820160009054906101000a900460ff16600281111561411c57fe5b600281111561412757fe5b815250509150816000015182602001518360400151600281111561414757fe5b94509450945050509193909250565b60008060608060608060608061416a6157c7565b600073ffffffffffffffffffffffffffffffffffffffff16600c8b81548110151561419157fe5b906000526020600020906007020160000160009054906101000a900473ffffffffffffffffffffffffffffffffffffffff1673ffffffffffffffffffffffffffffffffffffffff16141515156141e657600080fd5b600c8a8154811015156141f557fe5b906000526020600020906007020161010060405190810160405290816000820160009054906101000a900473ffffffffffffffffffffffffffffffffffffffff1673ffffffffffffffffffffffffffffffffffffffff1673ffffffffffffffffffffffffffffffffffffffff1681526020016000820160149054906101000a900460ff1660ff1660ff168152602001600182018054600181600116156101000203166002900480601f01602080910402602001604051908101604052809291908181526020018280546001816001161561010002031660029004801561431c5780601f106142f15761010080835404028352916020019161431c565b820191906000526020600020905b8154815290600101906020018083116142ff57829003601f168201915b50505050508152602001600282018054600181600116156101000203166002900480601f0160208091040260200160405190810160405280929190818152602001828054600181600116156101000203166002900480156143be5780601f10614393576101008083540402835291602001916143be565b820191906000526020600020905b8154815290600101906020018083116143a157829003601f168201915b50505050508152602001600382018054600181600116156101000203166002900480601f0160208091040260200160405190810160405280929190818152602001828054600181600116156101000203166002900480156144605780601f1061443557610100808354040283529160200191614460565b820191906000526020600020905b81548152906001019060200180831161444357829003601f168201915b50505050508152602001600482018054600181600116156101000203166002900480601f0160208091040260200160405190810160405280929190818152602001828054600181600116156101000203166002900480156145025780601f106144d757610100808354040283529160200191614502565b820191906000526020600020905b8154815290600101906020018083116144e557829003601f168201915b50505050508152602001600582018054600181600116156101000203166002900480601f0160208091040260200160405190810160405280929190818152602001828054600181600116156101000203166002900480156145a45780601f10614579576101008083540402835291602001916145a4565b820191906000526020600020905b81548152906001019060200180831161458757829003601f168201915b50505050508152602001600682018054600181600116156101000203166002900480601f0160208091040260200160405190810160405280929190818152602001828054600181600116156101000203166002900480156146465780601f1061461b57610100808354040283529160200191614646565b820191906000526020600020905b81548152906001019060200180831161462957829003601f168201915b5050505050815250509050806000015181602001518260400151836060015184608001518560a001518660c001518760e001518595508494508393508292508191508090509850985098509850985098509850985050919395975091939597565b33600560019054906101000a900460ff16600073ffffffffffffffffffffffffffffffffffffffff168273ffffffffffffffffffffffffffffffffffffffff16141515156146f457600080fd5b6146fe828261277f565b151561470957600080fd5b3373ffffffffffffffffffffffffffffffffffffffff16600c61472c8989615584565b81548110151561473857fe5b906000526020600020906007020160000160009054906101000a900473ffffffffffffffffffffffffffffffffffffffff1673ffffffffffffffffffffffffffffffffffffffff1614151561478c57600080fd5b60606040519081016040528085815260200184815260200160011515815250600960008989896040516020018084805190602001908083835b6020831015156147ea57805182526020820191506020810190506020830392506147c5565b6001836020036101000a03801982511681845116808217855250505050505090500183805190602001908083835b60208310151561483d5780518252602082019150602081019050602083039250614818565b6001836020036101000a03801982511681845116808217855250505050505090500182805190602001908083835b602083101515614890578051825260208201915060208101905060208303925061486b565b6001836020036101000a03801982511681845116808217855250505050505090500193505050506040516020818303038152906040526040518082805190602001908083835b6020831015156148fb57805182526020820191506020810190506020830392506148d6565b6001836020036101000a038019825116818451168082178552505050505050905001915050604051809103902060001916600019168152602001908152602001600020600082015181600001556020820151816001015560408201518160020160006101000a81548160ff02191690831515021790555090505050505050505050565b60008060008060009054906101000a900473ffffffffffffffffffffffffffffffffffffffff1673ffffffffffffffffffffffffffffffffffffffff163373ffffffffffffffffffffffffffffffffffffffff161415156149de57600080fd5b600260038111156149eb57fe5b6012898154811015156149fa57fe5b906000526020600020906006020160050160009054906101000a900460ff166003811115614a2457fe5b141515614a3057600080fd5b8484905087879050141515614a4457600080fd5b601288815481101515614a5357fe5b9060005260206000209060060201600201549250600091505b86869050821015614b15576010548585848181101515614a8857fe5b905060200201350290508686838181101515614aa057fe5b9050602002013573ffffffffffffffffffffffffffffffffffffffff1673ffffffffffffffffffffffffffffffffffffffff166108fc829081150290604051600060405180830381858888f19350505050158015614b02573d6000803e3d6000fd5b5080830392508180600101925050614a6c565b601288815481101515614b2457fe5b906000526020600020906006020160000160009054906101000a900473ffffffffffffffffffffffffffffffffffffffff1673ffffffffffffffffffffffffffffffffffffffff166108fc849081150290604051600060405180830381858888f19350505050158015614b9b573d6000803e3d6000fd5b506000601289815481101515614bad57fe5b9060005260206000209060060201600201819055506003601289815481101515614bd357fe5b906000526020600020906006020160050160006101000a81548160ff02191690836003811115614bff57fe5b02179055506000600e60128a815481101515614c1757fe5b906000526020600020906006020160010154815481101515614c3557fe5b906000526020600020906003020160020160006101000a81548160ff02191690836002811115614c6157fe5b02179055505050505050505050565b600c81815481101515614c7f57fe5b90600052602060002090600702016000915090508060000160009054906101000a900473ffffffffffffffffffffffffffffffffffffffff16908060000160149054906101000a900460ff1690806001018054600181600116156101000203166002900480601f016020809104026020016040519081016040528092919081815260200182805460018160011615610100020316600290048015614d645780601f10614d3957610100808354040283529160200191614d64565b820191906000526020600020905b815481529060010190602001808311614d4757829003601f168201915b505050505090806002018054600181600116156101000203166002900480601f016020809104026020016040519081016040528092919081815260200182805460018160011615610100020316600290048015614e025780601f10614dd757610100808354040283529160200191614e02565b820191906000526020600020905b815481529060010190602001808311614de557829003601f168201915b505050505090806003018054600181600116156101000203166002900480601f016020809104026020016040519081016040528092919081815260200182805460018160011615610100020316600290048015614ea05780601f10614e7557610100808354040283529160200191614ea0565b820191906000526020600020905b815481529060010190602001808311614e8357829003601f168201915b505050505090806004018054600181600116156101000203166002900480601f016020809104026020016040519081016040528092919081815260200182805460018160011615610100020316600290048015614f3e5780601f10614f1357610100808354040283529160200191614f3e565b820191906000526020600020905b815481529060010190602001808311614f2157829003601f168201915b505050505090806005018054600181600116156101000203166002900480601f016020809104026020016040519081016040528092919081815260200182805460018160011615610100020316600290048015614fdc5780601f10614fb157610100808354040283529160200191614fdc565b820191906000526020600020905b815481529060010190602001808311614fbf57829003601f168201915b505050505090806006018054600181600116156101000203166002900480601f01602080910402602001604051908101604052809291908181526020018280546001816001161561010002031660029004801561507a5780601f1061504f5761010080835404028352916020019161507a565b820191906000526020600020905b81548152906001019060200180831161505d57829003601f168201915b5050505050905088565b6000809054906101000a900473ffffffffffffffffffffffffffffffffffffffff1673ffffffffffffffffffffffffffffffffffffffff163373ffffffffffffffffffffffffffffffffffffffff161415156150df57600080fd5b80600060038111156150ed57fe5b6012828154811015156150fc57fe5b906000526020600020906006020160050160009054906101000a900460ff16600381111561512657fe5b1415151561513357600080fd5b6001600381111561514057fe5b60128381548110151561514f57fe5b906000526020600020906006020160050160009054906101000a900460ff16600381111561517957fe5b14151561518557600080fd5b600260128381548110151561519657fe5b906000526020600020906006020160050160006101000a81548160ff021916908360038111156151c257fe5b02179055505050565b6060600760003373ffffffffffffffffffffffffffffffffffffffff1673ffffffffffffffffffffffffffffffffffffffff16815260200190815260200160002080548060200260200160405190810160405280929190818152602001828054801561525657602002820191906000526020600020905b815481526020019060010190808311615242575b5050505050905090565b6000809054906101000a900473ffffffffffffffffffffffffffffffffffffffff1673ffffffffffffffffffffffffffffffffffffffff163373ffffffffffffffffffffffffffffffffffffffff161415156152bb57600080fd5b6152c4816156cd565b50565b6000806000809054906101000a900473ffffffffffffffffffffffffffffffffffffffff1673ffffffffffffffffffffffffffffffffffffffff163373ffffffffffffffffffffffffffffffffffffffff1614151561532557600080fd5b600060149054906101000a900460ff1615151561534157600080fd5b6001600084815260200190815260200160002060000160009054906101000a900473ffffffffffffffffffffffffffffffffffffffff166001600085815260200190815260200160002060000160149054906101000a900460ff1691509150915091565b6153ad615987565b600960008585856040516020018084805190602001908083835b6020831015156153ec57805182526020820191506020810190506020830392506153c7565b6001836020036101000a03801982511681845116808217855250505050505090500183805190602001908083835b60208310151561543f578051825260208201915060208101905060208303925061541a565b6001836020036101000a03801982511681845116808217855250505050505090500182805190602001908083835b602083101515615492578051825260208201915060208101905060208303925061546d565b6001836020036101000a03801982511681845116808217855250505050505090500193505050506040516020818303038152906040526040518082805190602001908083835b6020831015156154fd57805182526020820191506020810190506020830392506154d8565b6001836020036101000a0380198251168184511680821785525050505050509050019150506040518091039020600019166000191681526020019081526020016000206060604051908101604052908160008201548152602001600182015481526020016002820160009054906101000a900460ff16151515158152505090509392505050565b60006008600084846040516020018083805190602001908083835b6020831015156155c4578051825260208201915060208101905060208303925061559f565b6001836020036101000a03801982511681845116808217855250505050505090500182805190602001908083835b60208310151561561757805182526020820191506020810190506020830392506155f2565b6001836020036101000a038019825116818451168082178552505050505050905001925050506040516020818303038152906040526040518082805190602001908083835b602083101515615681578051825260208201915060208101905060208303925061565c565b6001836020036101000a03801982511681845116808217855250505050505090500191505060405180910390206000191660001916815260200190815260200160002054905092915050565b600073ffffffffffffffffffffffffffffffffffffffff168173ffffffffffffffffffffffffffffffffffffffff161415151561570957600080fd5b8073ffffffffffffffffffffffffffffffffffffffff166000809054906101000a900473ffffffffffffffffffffffffffffffffffffffff1673ffffffffffffffffffffffffffffffffffffffff167f8be0079c531659141344cd1fd0a4f28419497f9722a3daafe3b4186f6b6457e060405160405180910390a3806000806101000a81548173ffffffffffffffffffffffffffffffffffffffff021916908373ffffffffffffffffffffffffffffffffffffffff16021790555050565b61010060405190810160405280600073ffffffffffffffffffffffffffffffffffffffff168152602001600060ff1681526020016060815260200160608152602001606081526020016060815260200160608152602001606081525090565b828054600181600116156101000203166002900490600052602060002090601f016020900481019282601f1061586757805160ff1916838001178555615895565b82800160010185558215615895579182015b82811115615894578251825591602001919060010190615879565b5b5090506158a291906159ab565b5090565b60a060405190810160405280600073ffffffffffffffffffffffffffffffffffffffff168152602001606081526020016060815260200160608152602001600081525090565b60c060405190810160405280600073ffffffffffffffffffffffffffffffffffffffff168152602001600081526020016000815260200160008152602001600081526020016000600381111561593e57fe5b81525090565b606060405190810160405280600073ffffffffffffffffffffffffffffffffffffffff168152602001600081526020016000600281111561598157fe5b81525090565b60606040519081016040528060008152602001600081526020016000151581525090565b6159cd91905b808211156159c95760008160009055506001016159b1565b5090565b905600a165627a7a72305820d1937af9ef74726e1f9f96b6a81ba05aa2c9f22f7659e7fc4c32f365ac21980c0029",
  "source": "pragma solidity ^0.4.24;\r\n\r\n// import \"openzeppelin-solidity/contracts/ownership/Ownable.sol\";\r\nimport \"./BToken.sol\";\r\n\r\ncontract BChannel is BToken {\r\n\r\n  uint prcieByChunk = 0;\r\n  uint timeout = 86400;\r\n\r\n  function setConfig(uint _prcieByChunk, uint _timeout) external onlyOwner {\r\n    prcieByChunk = _prcieByChunk;\r\n    timeout = _timeout;\r\n  }\r\n\r\n  enum ChannelState {\r\n    invalid,\r\n    open,\r\n    off,\r\n    settle\r\n  }\r\n\r\n  // off-chain channel token\r\n  struct _Channel {\r\n    address receiver;\r\n    uint uTokenId;\r\n    uint deposit;\r\n    uint timestamp;\r\n    uint timeout;\r\n    ChannelState state;\r\n  }\r\n\r\n  _Channel[] internal _Cs;  // offchain channel tokens array\r\n\r\n  modifier onlyVCOf(uint cTokenId) {\r\n    require(_Cs[cTokenId].state != ChannelState.invalid);\r\n    _;\r\n  }\r\n\r\n  function getChannelDetails(uint cTokenId)\r\n  public view\r\n  onlyVCOf(cTokenId)\r\n  returns(address, uint, uint, uint, int, uint8) {\r\n    _Channel memory _C = _Cs[cTokenId];\r\n    return (_C.receiver, _Ts[_C.uTokenId].pTokenId, _C.deposit, _C.timestamp, int(_C.timeout - (now - _C.timestamp)), uint8(_C.state));\r\n  }\r\n\r\n  function getDepositAmount(uint uTokenId)\r\n  view public\r\n  onlyUOf(uTokenId)\r\n  onlyVTOf(uTokenId)\r\n  returns (uint amount) {\r\n    _Product memory _P = _Ps[_Ts[uTokenId].pTokenId];\r\n    uint chunks = getFileInfo(_P.ccid, _P.version, _P.filePath).chunks;\r\n    return chunks * prcieByChunk;\r\n  }\r\n\r\n  function channelOpen(uint uTokenId)\r\n  payable public\r\n  onlyUOf(uTokenId)\r\n  onlyVTOf(uTokenId) {\r\n    require(getDepositAmount(uTokenId) <= msg.value);\r\n    uint cTokenId = _Cs.push(_Channel(msg.sender, uTokenId, msg.value, now, timeout, ChannelState.open)) - 1;\r\n    _Ts[uTokenId].state = TokenState.in_progress;\r\n    emit NewID(cTokenId);\r\n  }\r\n\r\n  function channelOff(uint cTokenId)\r\n  public\r\n  onlyOwner\r\n  onlyVCOf(cTokenId) {\r\n    // require(msg.sender == owner || msg.sender == _Cs[cTokenId].receiver, \"you are not permissioned\");\r\n    require(_Cs[cTokenId].state == ChannelState.open);\r\n    _Cs[cTokenId].state = ChannelState.off;\r\n  }\r\n\r\n  function settleChannel(uint cTokenId, address[] contributors, uint[] chunks)\r\n  external\r\n  onlyOwner {\r\n    require(_Cs[cTokenId].state == ChannelState.off);\r\n    require(contributors.length == chunks.length);\r\n\r\n    uint leftDeposit = _Cs[cTokenId].deposit;\r\n    for(uint i = 0; i < contributors.length; i++) {\r\n      uint payment = chunks[i] * prcieByChunk;\r\n      contributors[i].transfer(payment);\r\n      leftDeposit -= payment;\r\n    }\r\n\r\n    (_Cs[cTokenId].receiver).transfer(leftDeposit);\r\n    _Cs[cTokenId].deposit = 0;\r\n    _Cs[cTokenId].state = ChannelState.settle;\r\n    _Ts[_Cs[cTokenId].uTokenId].state = TokenState.invalid;\r\n  }\r\n}\r\n",
  "sourcePath": "/home/ether/ethereum/ProjectB/TruffLeBToken/contracts/BChannel.sol",
  "compiler": {
    "name": "solc",
    "version": "0.4.24+commit.e67f0147.Emscripten.clang"
  },
  "schemaVersion": "2.0.2",
  "updatedAt": "2019-04-16T05:07:50.744Z"
}