{
  "contractName": "BChannel",
  "abi": [
    {
      "constant": true,
      "inputs": [
        {
          "name": "",
          "type": "uint256"
        }
      ],
      "name": "OToken2Deposit",
      "outputs": [
        {
          "name": "",
          "type": "uint256"
        }
      ],
      "payable": false,
      "stateMutability": "view",
      "type": "function"
    },
    {
      "constant": false,
      "inputs": [],
      "name": "renounceOwnership",
      "outputs": [],
      "payable": false,
      "stateMutability": "nonpayable",
      "type": "function"
    },
    {
      "constant": true,
      "inputs": [],
      "name": "owner",
      "outputs": [
        {
          "name": "",
          "type": "address"
        }
      ],
      "payable": false,
      "stateMutability": "view",
      "type": "function"
    },
    {
      "constant": false,
      "inputs": [
        {
          "name": "_newOwner",
          "type": "address"
        }
      ],
      "name": "transferOwnership",
      "outputs": [],
      "payable": false,
      "stateMutability": "nonpayable",
      "type": "function"
    },
    {
      "anonymous": false,
      "inputs": [
        {
          "indexed": false,
          "name": "oTokenId",
          "type": "uint256"
        },
        {
          "indexed": false,
          "name": "orderer",
          "type": "address"
        },
        {
          "indexed": false,
          "name": "cid",
          "type": "uint256"
        },
        {
          "indexed": false,
          "name": "contents_hash",
          "type": "string"
        },
        {
          "indexed": false,
          "name": "deposit",
          "type": "uint256"
        }
      ],
      "name": "channelOpened",
      "type": "event"
    },
    {
      "anonymous": false,
      "inputs": [
        {
          "indexed": false,
          "name": "contributors",
          "type": "address[]"
        },
        {
          "indexed": false,
          "name": "portions",
          "type": "uint256[]"
        }
      ],
      "name": "settleFinished",
      "type": "event"
    },
    {
      "anonymous": false,
      "inputs": [
        {
          "indexed": true,
          "name": "previousOwner",
          "type": "address"
        }
      ],
      "name": "OwnershipRenounced",
      "type": "event"
    },
    {
      "anonymous": false,
      "inputs": [
        {
          "indexed": true,
          "name": "previousOwner",
          "type": "address"
        },
        {
          "indexed": true,
          "name": "newOwner",
          "type": "address"
        }
      ],
      "name": "OwnershipTransferred",
      "type": "event"
    },
    {
      "constant": false,
      "inputs": [
        {
          "name": "deposit",
          "type": "uint256"
        },
        {
          "name": "price",
          "type": "uint256"
        }
      ],
      "name": "setConfig",
      "outputs": [],
      "payable": false,
      "stateMutability": "nonpayable",
      "type": "function"
    },
    {
      "constant": true,
      "inputs": [
        {
          "name": "oTokenId",
          "type": "uint256"
        }
      ],
      "name": "existsO",
      "outputs": [
        {
          "name": "",
          "type": "bool"
        }
      ],
      "payable": false,
      "stateMutability": "view",
      "type": "function"
    },
    {
      "constant": true,
      "inputs": [
        {
          "name": "oTokenId",
          "type": "uint256"
        }
      ],
      "name": "getOTokenDetails",
      "outputs": [
        {
          "name": "orderer",
          "type": "address"
        },
        {
          "name": "cid",
          "type": "uint256"
        },
        {
          "name": "cHash",
          "type": "string"
        },
        {
          "name": "numOfChunks",
          "type": "uint16"
        },
        {
          "name": "deposit",
          "type": "uint256"
        },
        {
          "name": "state",
          "type": "uint8"
        },
        {
          "name": "timestamp",
          "type": "uint256"
        },
        {
          "name": "leftTime",
          "type": "uint256"
        }
      ],
      "payable": false,
      "stateMutability": "view",
      "type": "function"
    },
    {
      "constant": false,
      "inputs": [
        {
          "name": "cid",
          "type": "uint256"
        },
        {
          "name": "contentsHash",
          "type": "string"
        },
        {
          "name": "numOfChunks",
          "type": "uint16"
        }
      ],
      "name": "channelOpen",
      "outputs": [
        {
          "name": "oTokenId",
          "type": "uint256"
        }
      ],
      "payable": true,
      "stateMutability": "payable",
      "type": "function"
    },
    {
      "constant": false,
      "inputs": [
        {
          "name": "oTokenId",
          "type": "uint256"
        }
      ],
      "name": "channelOff",
      "outputs": [],
      "payable": false,
      "stateMutability": "nonpayable",
      "type": "function"
    },
    {
      "constant": false,
      "inputs": [
        {
          "name": "oTokenId",
          "type": "uint256"
        },
        {
          "name": "contributor",
          "type": "address[]"
        },
        {
          "name": "portion",
          "type": "uint256[]"
        }
      ],
      "name": "settleChannel",
      "outputs": [],
      "payable": false,
      "stateMutability": "nonpayable",
      "type": "function"
    }
  ],
  "bytecode": "0x608060405260006001556000600255336000806101000a81548173ffffffffffffffffffffffffffffffffffffffff021916908373ffffffffffffffffffffffffffffffffffffffff1602179055506113a68061005d6000396000f3006080604052600436106100a4576000357c0100000000000000000000000000000000000000000000000000000000900463ffffffff1680630df483f7146100a95780631e34c585146100ee5780632389ed001461012557806334ed7e52146101ad5780635085286e146102be578063715018a6146102ff5780638da5cb5b14610316578063de8399a91461036d578063ea946b56146103ca578063f2fde38b146103f7575b600080fd5b3480156100b557600080fd5b506100d46004803603810190808035906020019092919050505061043a565b604051808215151515815260200191505060405180910390f35b3480156100fa57600080fd5b50610123600480360381019080803590602001909291908035906020019092919050505061044f565b005b61019760048036038101908080359060200190929190803590602001908201803590602001908080601f0160208091040260200160405190810160405280939291908181526020018383808284378201915050505050509192919290803561ffff1690602001909291905050506104bc565b6040518082815260200191505060405180910390f35b3480156101b957600080fd5b506101d86004803603810190808035906020019092919050505061079e565b604051808973ffffffffffffffffffffffffffffffffffffffff1673ffffffffffffffffffffffffffffffffffffffff168152602001888152602001806020018761ffff1661ffff1681526020018681526020018560ff1660ff168152602001848152602001838152602001828103825288818151815260200191508051906020019080838360005b8381101561027c578082015181840152602081019050610261565b50505050905090810190601f1680156102a95780820380516001836020036101000a031916815260200191505b50995050505050505050505060405180910390f35b3480156102ca57600080fd5b506102e9600480360381019080803590602001909291905050506109aa565b6040518082815260200191505060405180910390f35b34801561030b57600080fd5b506103146109c2565b005b34801561032257600080fd5b5061032b610ac4565b604051808273ffffffffffffffffffffffffffffffffffffffff1673ffffffffffffffffffffffffffffffffffffffff16815260200191505060405180910390f35b34801561037957600080fd5b506103c860048036038101908080359060200190929190803590602001908201803590602001919091929391929390803590602001908201803590602001919091929391929390505050610ae9565b005b3480156103d657600080fd5b506103f560048036038101908080359060200190929190505050610f94565b005b34801561040357600080fd5b50610438600480360381019080803573ffffffffffffffffffffffffffffffffffffffff169060200190929190505050611111565b005b60006003805490506001830111159050919050565b6000809054906101000a900473ffffffffffffffffffffffffffffffffffffffff1673ffffffffffffffffffffffffffffffffffffffff163373ffffffffffffffffffffffffffffffffffffffff161415156104aa57600080fd5b81600181905550806002819055505050565b60003460015411151515610538576040517f08c379a00000000000000000000000000000000000000000000000000000000081526004018080602001828103825260158152602001807f6465706f73697420697320746f6f206c6974746c65000000000000000000000081525060200191505060405180910390fd5b6001600360e0604051908101604052803373ffffffffffffffffffffffffffffffffffffffff1681526020018781526020018681526020018561ffff1681526020016000600281111561058757fe5b8152602001428152602001620f42408152509080600181540180825580915050906001820390600052602060002090600602016000909192909190915060008201518160000160006101000a81548173ffffffffffffffffffffffffffffffffffffffff021916908373ffffffffffffffffffffffffffffffffffffffff160217905550602082015181600101556040820151816002019080519060200190610631929190611272565b5060608201518160030160006101000a81548161ffff021916908361ffff16021790555060808201518160030160026101000a81548160ff0219169083600281111561067957fe5b021790555060a0820151816004015560c0820151816005015550500390503460046000838152602001908152602001600020819055507f0f8d54ea462cee00b7a75c94ae885b80fcfd7439ad2e2807e1a7f08402edc0888133868634604051808681526020018573ffffffffffffffffffffffffffffffffffffffff1673ffffffffffffffffffffffffffffffffffffffff16815260200184815260200180602001838152602001828103825284818151815260200191508051906020019080838360005b8381101561075957808201518184015260208101905061073e565b50505050905090810190601f1680156107865780820380516001836020036101000a031916815260200191505b50965050505050505060405180910390a19392505050565b600080606060008060008060006107b36112f2565b60038a8154811015156107c257fe5b906000526020600020906006020160e060405190810160405290816000820160009054906101000a900473ffffffffffffffffffffffffffffffffffffffff1673ffffffffffffffffffffffffffffffffffffffff1673ffffffffffffffffffffffffffffffffffffffff16815260200160018201548152602001600282018054600181600116156101000203166002900480601f0160208091040260200160405190810160405280929190818152602001828054600181600116156101000203166002900480156108d55780601f106108aa576101008083540402835291602001916108d5565b820191906000526020600020905b8154815290600101906020018083116108b857829003601f168201915b505050505081526020016003820160009054906101000a900461ffff1661ffff1661ffff1681526020016003820160029054906101000a900460ff16600281111561091c57fe5b600281111561092757fe5b81526020016004820154815260200160058201548152505090508060000151816020015182604001518360600151600460008f8152602001908152602001600020548560800151600281111561097957fe5b8660a001518760a0015142038860c00151038595509850985098509850985098509850985050919395975091939597565b60046020528060005260406000206000915090505481565b6000809054906101000a900473ffffffffffffffffffffffffffffffffffffffff1673ffffffffffffffffffffffffffffffffffffffff163373ffffffffffffffffffffffffffffffffffffffff16141515610a1d57600080fd5b6000809054906101000a900473ffffffffffffffffffffffffffffffffffffffff1673ffffffffffffffffffffffffffffffffffffffff167ff8df31144d9c2f0f6b59d69b8b98abd5459d07f2742c4df920b25aae33c6482060405160405180910390a260008060006101000a81548173ffffffffffffffffffffffffffffffffffffffff021916908373ffffffffffffffffffffffffffffffffffffffff160217905550565b6000809054906101000a900473ffffffffffffffffffffffffffffffffffffffff1681565b600060606000806000809054906101000a900473ffffffffffffffffffffffffffffffffffffffff1673ffffffffffffffffffffffffffffffffffffffff163373ffffffffffffffffffffffffffffffffffffffff16141515610b4b57600080fd5b60016002811115610b5857fe5b60038a815481101515610b6757fe5b906000526020600020906006020160030160029054906101000a900460ff166002811115610b9157fe5b141515610c06576040517f08c379a00000000000000000000000000000000000000000000000000000000081526004018080602001828103825260188152602001807f6368616e6e656c206973206e6f74206f6666656420796574000000000000000081525060200191505060405180910390fd5b600460008a815260200190815260200160002054935087879050604051908082528060200260200182016040528015610c4e5781602001602082028038833980820191505090505b50925060009150600090505b87879050811015610d6d5760648686838181101515610c7557fe5b9050602002013560025402811515610c8957fe5b048382815181101515610c9857fe5b90602001906020020181815250508281815181101515610cb457fe5b9060200190602002015182019150838211151515610d60576040517f08c379a00000000000000000000000000000000000000000000000000000000081526004018080602001828103825260228152602001807f6465706f736974206973206c657373207468616e20746f74616c207061796d6581526020017f6e7400000000000000000000000000000000000000000000000000000000000081525060400191505060405180910390fd5b8080600101915050610c5a565b600090505b87879050811015610e2e578787828181101515610d8b57fe5b9050602002013573ffffffffffffffffffffffffffffffffffffffff1673ffffffffffffffffffffffffffffffffffffffff166108fc8483815181101515610dcf57fe5b906020019060200201519081150290604051600060405180830381858888f19350505050158015610e04573d6000803e3d6000fd5b508281815181101515610e1357fe5b90602001906020020151840393508080600101915050610d72565b600389815481101515610e3d57fe5b906000526020600020906006020160000160009054906101000a900473ffffffffffffffffffffffffffffffffffffffff1673ffffffffffffffffffffffffffffffffffffffff166108fc859081150290604051600060405180830381858888f19350505050158015610eb4573d6000803e3d6000fd5b506000600460008b815260200190815260200160002081905550600260038a815481101515610edf57fe5b906000526020600020906006020160030160026101000a81548160ff02191690836002811115610f0b57fe5b02179055507f18abf4f711d6d6304cfb2d111bb5c53ff705428485a8c41bd9da2ed7f98dfe4d888888886040518080602001806020018381038352878782818152602001925060200280828437820191505083810382528585828181526020019250602002808284378201915050965050505050505060405180910390a1505050505050505050565b610f9d8161043a565b1515611011576040517f08c379a000000000000000000000000000000000000000000000000000000000815260040180806020018281038252601c8152602001807f74686973206f66662d636861696e206973206e6f74206578697374730000000081525060200191505060405180910390fd5b6000600281111561101e57fe5b60038281548110151561102d57fe5b906000526020600020906006020160030160029054906101000a900460ff16600281111561105757fe5b1415156110cc576040517f08c379a000000000000000000000000000000000000000000000000000000000815260040180806020018281038252601f8152602001807f74686973206f66662d636861696e20697320616c7265616479206f666665640081525060200191505060405180910390fd5b60016003828154811015156110dd57fe5b906000526020600020906006020160030160026101000a81548160ff0219169083600281111561110957fe5b021790555050565b6000809054906101000a900473ffffffffffffffffffffffffffffffffffffffff1673ffffffffffffffffffffffffffffffffffffffff163373ffffffffffffffffffffffffffffffffffffffff1614151561116c57600080fd5b61117581611178565b50565b600073ffffffffffffffffffffffffffffffffffffffff168173ffffffffffffffffffffffffffffffffffffffff16141515156111b457600080fd5b8073ffffffffffffffffffffffffffffffffffffffff166000809054906101000a900473ffffffffffffffffffffffffffffffffffffffff1673ffffffffffffffffffffffffffffffffffffffff167f8be0079c531659141344cd1fd0a4f28419497f9722a3daafe3b4186f6b6457e060405160405180910390a3806000806101000a81548173ffffffffffffffffffffffffffffffffffffffff021916908373ffffffffffffffffffffffffffffffffffffffff16021790555050565b828054600181600116156101000203166002900490600052602060002090601f016020900481019282601f106112b357805160ff19168380011785556112e1565b828001600101855582156112e1579182015b828111156112e05782518255916020019190600101906112c5565b5b5090506112ee9190611355565b5090565b60e060405190810160405280600073ffffffffffffffffffffffffffffffffffffffff1681526020016000815260200160608152602001600061ffff1681526020016000600281111561134157fe5b815260200160008152602001600081525090565b61137791905b8082111561137357600081600090555060010161135b565b5090565b905600a165627a7a723058207f0cf09fb4dd531062fb0ea831de00a412c0cee9dbc24933e51094d78d5cdd290029",
  "source": "pragma solidity ^0.4.24;\r\n\r\nimport \"openzeppelin-solidity/contracts/ownership/Ownable.sol\";\r\n\r\ncontract BChannel is Ownable {\r\n\r\n  uint minDeposit = 0;\r\n  uint unitPrice = 0;\r\n\r\n  event channelOpened(uint oTokenId, address orderer, uint cid, string contents_hash, uint deposit);\r\n  event settleFinished(address[] contributors, uint[] portions);\r\n\r\n  // config\r\n  function setConfig(uint deposit, uint price) external onlyOwner {\r\n    minDeposit = deposit;\r\n    unitPrice = price;\r\n  }\r\n\r\n  enum OTokenState_ {\r\n    open,\r\n    off,\r\n    settle\r\n  }\r\n\r\n  // off-chain channel token\r\n  struct OToken_ {\r\n    address _Orderer;\r\n    uint _CID;\r\n    string _CHash;\r\n    uint16 _NumOfChunks;\r\n    OTokenState_ _State;\r\n    uint _TimeStamp;\r\n    uint _TimeOut;\r\n  }\r\n\r\n  OToken_[] internal _OTs;  // offchain channel tokens array\r\n\r\n  mapping (uint => uint) public OToken2Deposit; // otokenId => deposit\r\n\r\n  function existsO(uint256 oTokenId) view public returns (bool) {\r\n    return oTokenId + 1 <= _OTs.length;\r\n  }\r\n\r\n  function getOTokenDetails(uint oTokenId) public view returns(address orderer, uint cid, string cHash, uint16 numOfChunks, uint deposit, uint8 state, uint timestamp, uint leftTime ) {\r\n    OToken_ memory O = _OTs[oTokenId];\r\n    return (\r\n      O._Orderer,\r\n      O._CID,\r\n      O._CHash,\r\n      O._NumOfChunks,\r\n      OToken2Deposit[oTokenId],\r\n      uint8(O._State),\r\n      O._TimeStamp,\r\n      O._TimeOut - (now - O._TimeStamp)\r\n    );\r\n  }\r\n\r\n  // off-chain APIs\r\n  function channelOpen(uint cid, string contentsHash, uint16 numOfChunks) payable public returns (uint oTokenId) {\r\n    require(minDeposit <= msg.value, \"deposit is too little\");\r\n\r\n    oTokenId = _OTs.push(OToken_(msg.sender, cid, contentsHash, numOfChunks, OTokenState_.open, now, 1000000/*timeout*/ )) - 1;\r\n    OToken2Deposit[oTokenId] = msg.value;\r\n    emit channelOpened(oTokenId, msg.sender, cid, contentsHash, msg.value);\r\n  }\r\n\r\n  function channelOff(uint oTokenId) public {\r\n    require(existsO(oTokenId), \"this off-chain is not exists\");\r\n    require(_OTs[oTokenId]._State == OTokenState_.open, \"this off-chain is already offed\");\r\n    _OTs[oTokenId]._State = OTokenState_.off;\r\n  }\r\n\r\n  function settleChannel(uint oTokenId, address[] contributor, uint[] portion) onlyOwner external {\r\n    require(_OTs[oTokenId]._State == OTokenState_.off, \"channel is not offed yet\");\r\n\r\n    uint balanceForUser = OToken2Deposit[oTokenId];\r\n    uint[] memory payForSender = new uint[](contributor.length);\r\n    uint totalPay = 0;\r\n    for(uint i = 0; i < contributor.length; i++) {\r\n      payForSender[i] = (unitPrice * portion[i]) / 100;\r\n      totalPay += payForSender[i];\r\n      require(totalPay <= balanceForUser, \"deposit is less than total payment\");\r\n    }\r\n\r\n    for(i = 0; i < contributor.length; i++) {\r\n      contributor[i].transfer(payForSender[i]);\r\n      balanceForUser -= payForSender[i];\r\n    }\r\n\r\n    (_OTs[oTokenId]._Orderer).transfer(balanceForUser);\r\n    OToken2Deposit[oTokenId] = 0;\r\n    _OTs[oTokenId]._State = OTokenState_.settle;\r\n\r\n    emit settleFinished(contributor, portion);\r\n  }\r\n}\r\n",
  "sourcePath": "/home/ether/ethereum/ProjectB/TruffLeBToken/contracts/BChannel.sol",
  "compiler": {
    "name": "solc",
    "version": "0.4.25+commit.59dbf8f1.Emscripten.clang"
  },
  "schemaVersion": "2.0.2",
  "updatedAt": "2019-03-25T01:58:38.601Z"
}