{
  "contractName": "BToken",
  "abi": [
    {
      "constant": false,
      "inputs": [
        {
          "name": "cid",
          "type": "uint256"
        },
        {
          "name": "titLe",
          "type": "string"
        }
      ],
      "name": "modifyData",
      "outputs": [],
      "payable": false,
      "stateMutability": "nonpayable",
      "type": "function"
    },
    {
      "constant": true,
      "inputs": [],
      "name": "getOwnedSCs",
      "outputs": [
        {
          "name": "",
          "type": "uint256[]"
        }
      ],
      "payable": false,
      "stateMutability": "view",
      "type": "function"
    },
    {
      "constant": true,
      "inputs": [
        {
          "name": "pTokenId",
          "type": "uint256"
        }
      ],
      "name": "existsP",
      "outputs": [
        {
          "name": "",
          "type": "bool"
        }
      ],
      "payable": false,
      "stateMutability": "view",
      "type": "function"
    },
    {
      "constant": true,
      "inputs": [
        {
          "name": "uTokenId",
          "type": "uint256"
        }
      ],
      "name": "getUTokenDetails",
      "outputs": [
        {
          "name": "user",
          "type": "address"
        },
        {
          "name": "cTokenId",
          "type": "uint256"
        },
        {
          "name": "state",
          "type": "uint8"
        }
      ],
      "payable": false,
      "stateMutability": "view",
      "type": "function"
    },
    {
      "constant": true,
      "inputs": [
        {
          "name": "",
          "type": "address"
        },
        {
          "name": "",
          "type": "uint256"
        }
      ],
      "name": "Provider2CIDs",
      "outputs": [
        {
          "name": "",
          "type": "uint256"
        }
      ],
      "payable": false,
      "stateMutability": "view",
      "type": "function"
    },
    {
      "constant": true,
      "inputs": [
        {
          "name": "pTokenId",
          "type": "uint256"
        }
      ],
      "name": "getOwnedSCsWithPToken",
      "outputs": [
        {
          "name": "",
          "type": "uint256[]"
        }
      ],
      "payable": false,
      "stateMutability": "view",
      "type": "function"
    },
    {
      "constant": true,
      "inputs": [
        {
          "name": "scIndex",
          "type": "uint256"
        }
      ],
      "name": "getSCDetails",
      "outputs": [
        {
          "name": "searchProvider",
          "type": "address"
        },
        {
          "name": "pTokenId",
          "type": "uint256"
        },
        {
          "name": "cost",
          "type": "uint256"
        }
      ],
      "payable": false,
      "stateMutability": "view",
      "type": "function"
    },
    {
      "constant": true,
      "inputs": [],
      "name": "getOwnedDatas",
      "outputs": [
        {
          "name": "",
          "type": "uint256[]"
        }
      ],
      "payable": false,
      "stateMutability": "view",
      "type": "function"
    },
    {
      "constant": true,
      "inputs": [],
      "name": "getOwnedDCs",
      "outputs": [
        {
          "name": "",
          "type": "uint256[]"
        }
      ],
      "payable": false,
      "stateMutability": "view",
      "type": "function"
    },
    {
      "constant": true,
      "inputs": [],
      "name": "getOwnedUTokens",
      "outputs": [
        {
          "name": "",
          "type": "uint256[]"
        }
      ],
      "payable": false,
      "stateMutability": "view",
      "type": "function"
    },
    {
      "constant": false,
      "inputs": [],
      "name": "renounceOwnership",
      "outputs": [],
      "payable": false,
      "stateMutability": "nonpayable",
      "type": "function"
    },
    {
      "constant": true,
      "inputs": [
        {
          "name": "uTokenId",
          "type": "uint256"
        }
      ],
      "name": "existsU",
      "outputs": [
        {
          "name": "",
          "type": "bool"
        }
      ],
      "payable": false,
      "stateMutability": "view",
      "type": "function"
    },
    {
      "constant": true,
      "inputs": [
        {
          "name": "",
          "type": "uint256"
        }
      ],
      "name": "_PTs",
      "outputs": [
        {
          "name": "_Owner",
          "type": "address"
        },
        {
          "name": "_Hash",
          "type": "bytes32"
        },
        {
          "name": "_Price",
          "type": "uint256"
        }
      ],
      "payable": false,
      "stateMutability": "view",
      "type": "function"
    },
    {
      "constant": true,
      "inputs": [
        {
          "name": "dcIndex",
          "type": "uint256"
        }
      ],
      "name": "existsDC",
      "outputs": [
        {
          "name": "",
          "type": "bool"
        }
      ],
      "payable": false,
      "stateMutability": "view",
      "type": "function"
    },
    {
      "constant": true,
      "inputs": [
        {
          "name": "scIndex",
          "type": "uint256"
        }
      ],
      "name": "existsSC",
      "outputs": [
        {
          "name": "",
          "type": "bool"
        }
      ],
      "payable": false,
      "stateMutability": "view",
      "type": "function"
    },
    {
      "constant": true,
      "inputs": [],
      "name": "owner",
      "outputs": [
        {
          "name": "",
          "type": "address"
        }
      ],
      "payable": false,
      "stateMutability": "view",
      "type": "function"
    },
    {
      "constant": false,
      "inputs": [
        {
          "name": "hash",
          "type": "bytes32"
        },
        {
          "name": "fee",
          "type": "uint256"
        }
      ],
      "name": "modifyContents",
      "outputs": [],
      "payable": false,
      "stateMutability": "nonpayable",
      "type": "function"
    },
    {
      "constant": true,
      "inputs": [
        {
          "name": "dcIndex",
          "type": "uint256"
        }
      ],
      "name": "getDCDetails",
      "outputs": [
        {
          "name": "distributor",
          "type": "address"
        },
        {
          "name": "pTokenId",
          "type": "uint256"
        },
        {
          "name": "cost",
          "type": "uint256"
        }
      ],
      "payable": false,
      "stateMutability": "view",
      "type": "function"
    },
    {
      "constant": true,
      "inputs": [
        {
          "name": "cid",
          "type": "uint256"
        }
      ],
      "name": "existsD",
      "outputs": [
        {
          "name": "",
          "type": "bool"
        }
      ],
      "payable": false,
      "stateMutability": "view",
      "type": "function"
    },
    {
      "constant": true,
      "inputs": [
        {
          "name": "",
          "type": "uint256"
        },
        {
          "name": "",
          "type": "uint256"
        }
      ],
      "name": "CID2Hashes",
      "outputs": [
        {
          "name": "",
          "type": "bytes32"
        }
      ],
      "payable": false,
      "stateMutability": "view",
      "type": "function"
    },
    {
      "constant": true,
      "inputs": [
        {
          "name": "pTokenId",
          "type": "uint256"
        }
      ],
      "name": "getOwnedDCsWithPToken",
      "outputs": [
        {
          "name": "",
          "type": "uint256[]"
        }
      ],
      "payable": false,
      "stateMutability": "view",
      "type": "function"
    },
    {
      "constant": true,
      "inputs": [
        {
          "name": "",
          "type": "bytes32"
        }
      ],
      "name": "Hash2Contents",
      "outputs": [
        {
          "name": "_Cid",
          "type": "uint256"
        },
        {
          "name": "_Fee",
          "type": "uint256"
        },
        {
          "name": "_Enable",
          "type": "bool"
        }
      ],
      "payable": false,
      "stateMutability": "view",
      "type": "function"
    },
    {
      "constant": true,
      "inputs": [],
      "name": "getOwnedPTokens",
      "outputs": [
        {
          "name": "",
          "type": "uint256[]"
        }
      ],
      "payable": false,
      "stateMutability": "view",
      "type": "function"
    },
    {
      "constant": true,
      "inputs": [
        {
          "name": "",
          "type": "uint256"
        }
      ],
      "name": "_Ds",
      "outputs": [
        {
          "name": "_Owner",
          "type": "address"
        },
        {
          "name": "_TitLe",
          "type": "string"
        }
      ],
      "payable": false,
      "stateMutability": "view",
      "type": "function"
    },
    {
      "constant": true,
      "inputs": [
        {
          "name": "",
          "type": "address"
        },
        {
          "name": "",
          "type": "uint256"
        }
      ],
      "name": "Owner2PTokenIds",
      "outputs": [
        {
          "name": "",
          "type": "uint256"
        }
      ],
      "payable": false,
      "stateMutability": "view",
      "type": "function"
    },
    {
      "constant": true,
      "inputs": [
        {
          "name": "hash",
          "type": "bytes32"
        }
      ],
      "name": "existsH",
      "outputs": [
        {
          "name": "",
          "type": "bool"
        }
      ],
      "payable": false,
      "stateMutability": "view",
      "type": "function"
    },
    {
      "constant": true,
      "inputs": [
        {
          "name": "cid",
          "type": "uint256"
        }
      ],
      "name": "getOwnedHashes",
      "outputs": [
        {
          "name": "",
          "type": "bytes32[]"
        }
      ],
      "payable": false,
      "stateMutability": "view",
      "type": "function"
    },
    {
      "constant": false,
      "inputs": [
        {
          "name": "_newOwner",
          "type": "address"
        }
      ],
      "name": "transferOwnership",
      "outputs": [],
      "payable": false,
      "stateMutability": "nonpayable",
      "type": "function"
    },
    {
      "anonymous": false,
      "inputs": [
        {
          "indexed": false,
          "name": "provider",
          "type": "address"
        },
        {
          "indexed": false,
          "name": "cid",
          "type": "uint256"
        },
        {
          "indexed": false,
          "name": "titLe",
          "type": "string"
        }
      ],
      "name": "NewData",
      "type": "event"
    },
    {
      "anonymous": false,
      "inputs": [
        {
          "indexed": false,
          "name": "cid",
          "type": "uint256"
        },
        {
          "indexed": false,
          "name": "hash",
          "type": "bytes32"
        },
        {
          "indexed": false,
          "name": "fee",
          "type": "uint256"
        }
      ],
      "name": "NewHash",
      "type": "event"
    },
    {
      "anonymous": false,
      "inputs": [
        {
          "indexed": false,
          "name": "owner",
          "type": "address"
        },
        {
          "indexed": false,
          "name": "pTokenId",
          "type": "uint256"
        },
        {
          "indexed": false,
          "name": "hash",
          "type": "bytes32"
        },
        {
          "indexed": false,
          "name": "price",
          "type": "uint256"
        }
      ],
      "name": "NewPToken",
      "type": "event"
    },
    {
      "anonymous": false,
      "inputs": [
        {
          "indexed": false,
          "name": "owner",
          "type": "address"
        },
        {
          "indexed": false,
          "name": "uTokenId",
          "type": "uint256"
        },
        {
          "indexed": false,
          "name": "pTokenId",
          "type": "uint256"
        },
        {
          "indexed": false,
          "name": "state",
          "type": "uint8"
        }
      ],
      "name": "NewUToken",
      "type": "event"
    },
    {
      "anonymous": false,
      "inputs": [
        {
          "indexed": false,
          "name": "provider",
          "type": "address"
        },
        {
          "indexed": false,
          "name": "cid",
          "type": "uint256"
        },
        {
          "indexed": false,
          "name": "title",
          "type": "string"
        }
      ],
      "name": "ModifyData",
      "type": "event"
    },
    {
      "anonymous": false,
      "inputs": [
        {
          "indexed": false,
          "name": "cid",
          "type": "uint256"
        },
        {
          "indexed": false,
          "name": "hash",
          "type": "bytes32"
        },
        {
          "indexed": false,
          "name": "fee",
          "type": "uint256"
        }
      ],
      "name": "ModifyContents",
      "type": "event"
    },
    {
      "anonymous": false,
      "inputs": [
        {
          "indexed": false,
          "name": "distributor",
          "type": "address"
        },
        {
          "indexed": false,
          "name": "dcIndex",
          "type": "uint256"
        },
        {
          "indexed": false,
          "name": "pTokenId",
          "type": "uint256"
        },
        {
          "indexed": false,
          "name": "cost",
          "type": "uint256"
        }
      ],
      "name": "NewDistContract",
      "type": "event"
    },
    {
      "anonymous": false,
      "inputs": [
        {
          "indexed": false,
          "name": "searchProvider",
          "type": "address"
        },
        {
          "indexed": false,
          "name": "pTokenId",
          "type": "uint256"
        },
        {
          "indexed": false,
          "name": "cost",
          "type": "uint256"
        }
      ],
      "name": "NewSearchContract",
      "type": "event"
    },
    {
      "anonymous": false,
      "inputs": [
        {
          "indexed": true,
          "name": "previousOwner",
          "type": "address"
        }
      ],
      "name": "OwnershipRenounced",
      "type": "event"
    },
    {
      "anonymous": false,
      "inputs": [
        {
          "indexed": true,
          "name": "previousOwner",
          "type": "address"
        },
        {
          "indexed": true,
          "name": "newOwner",
          "type": "address"
        }
      ],
      "name": "OwnershipTransferred",
      "type": "event"
    },
    {
      "constant": false,
      "inputs": [
        {
          "name": "distributor",
          "type": "address"
        }
      ],
      "name": "enrollDistributor",
      "outputs": [],
      "payable": false,
      "stateMutability": "nonpayable",
      "type": "function"
    },
    {
      "constant": false,
      "inputs": [
        {
          "name": "searchProvider",
          "type": "address"
        }
      ],
      "name": "enrollSearchProvider",
      "outputs": [],
      "payable": false,
      "stateMutability": "nonpayable",
      "type": "function"
    },
    {
      "constant": false,
      "inputs": [
        {
          "name": "titLe",
          "type": "string"
        }
      ],
      "name": "registerData",
      "outputs": [],
      "payable": false,
      "stateMutability": "nonpayable",
      "type": "function"
    },
    {
      "constant": false,
      "inputs": [
        {
          "name": "cid",
          "type": "uint256"
        },
        {
          "name": "hash",
          "type": "bytes32"
        },
        {
          "name": "fee",
          "type": "uint256"
        }
      ],
      "name": "registerHash",
      "outputs": [],
      "payable": false,
      "stateMutability": "nonpayable",
      "type": "function"
    },
    {
      "constant": false,
      "inputs": [
        {
          "name": "hash",
          "type": "bytes32"
        },
        {
          "name": "seller",
          "type": "address"
        },
        {
          "name": "value",
          "type": "uint256"
        }
      ],
      "name": "registerProduct",
      "outputs": [],
      "payable": false,
      "stateMutability": "nonpayable",
      "type": "function"
    },
    {
      "constant": false,
      "inputs": [
        {
          "name": "pTokenId",
          "type": "uint256"
        },
        {
          "name": "distributor",
          "type": "address"
        },
        {
          "name": "cost",
          "type": "uint256"
        }
      ],
      "name": "distContract",
      "outputs": [],
      "payable": false,
      "stateMutability": "nonpayable",
      "type": "function"
    },
    {
      "constant": false,
      "inputs": [
        {
          "name": "pTokenId",
          "type": "uint256"
        },
        {
          "name": "searchProvider",
          "type": "address"
        },
        {
          "name": "cost",
          "type": "uint256"
        }
      ],
      "name": "searchContract",
      "outputs": [],
      "payable": false,
      "stateMutability": "nonpayable",
      "type": "function"
    },
    {
      "constant": false,
      "inputs": [
        {
          "name": "pTokenId",
          "type": "uint256"
        }
      ],
      "name": "buyToken",
      "outputs": [],
      "payable": true,
      "stateMutability": "payable",
      "type": "function"
    }
  ],
  "bytecode": "0x6080604052336000806101000a81548173ffffffffffffffffffffffffffffffffffffffff021916908373ffffffffffffffffffffffffffffffffffffffff160217905550614832806100536000396000f3006080604052600436106101c2576000357c0100000000000000000000000000000000000000000000000000000000900463ffffffff168063034886d9146101c757806304c5a7d21461023a57806309583e6b146102915780630cd7d634146102d457806313637edb146103405780632d296bf1146103855780633139e77d146103a557806333fd42fc146104265780633409171014610469578063373fd55f146104ca5780634496885b1461054c578063472f86cf146105c75780634b80876314610633578063647e50981461069f5780636ca1c68b146106fa578063715018a614610766578063781be31b1461077d578063869906cd146107c25780638c189d12146108455780638c97af5f1461088a5780638da5cb5b146108cf5780639aef79d8146109265780639db544a714610961578063a15a2428146109dc578063aec892c814610a33578063b6f5b10514610a78578063bb33595c14610acb578063c8f11ee114610b4d578063d79063e214610b88578063d9892d6914610bdf578063dc0d6db314610c24578063e17fb29b14610c90578063e78bf2da14610d69578063eaaeaa3814610dca578063f2a427d214610e13578063f2fde38b14610e95575b600080fd5b3480156101d357600080fd5b5061023860048036038101908080359060200190929190803590602001908201803590602001908080601f0160208091040260200160405190810160405280939291908181526020018383808284378201915050505050509192919290505050610ed8565b005b34801561024657600080fd5b5061028f60048036038101908080359060200190929190803573ffffffffffffffffffffffffffffffffffffffff1690602001909291908035906020019092919050505061110a565b005b34801561029d57600080fd5b506102d2600480360381019080803573ffffffffffffffffffffffffffffffffffffffff1690602001909291905050506116ae565b005b3480156102e057600080fd5b506102e961199f565b6040518080602001828103825283818151815260200191508051906020019060200280838360005b8381101561032c578082015181840152602081019050610311565b505050509050019250505060405180910390f35b34801561034c57600080fd5b5061036b60048036038101908080359060200190929190505050611a34565b604051808215151515815260200191505060405180910390f35b6103a360048036038101908080359060200190929190505050611a49565b005b3480156103b157600080fd5b506103d060048036038101908080359060200190929190505050611f7f565b604051808473ffffffffffffffffffffffffffffffffffffffff1673ffffffffffffffffffffffffffffffffffffffff1681526020018381526020018260ff1660ff168152602001935050505060405180910390f35b34801561043257600080fd5b50610467600480360381019080803573ffffffffffffffffffffffffffffffffffffffff1690602001909291905050506120a8565b005b34801561047557600080fd5b506104b4600480360381019080803573ffffffffffffffffffffffffffffffffffffffff16906020019092919080359060200190929190505050612399565b6040518082815260200191505060405180910390f35b3480156104d657600080fd5b506104f5600480360381019080803590602001909291905050506123c9565b6040518080602001828103825283818151815260200191508051906020019060200280838360005b8381101561053857808201518184015260208101905061051d565b505050509050019250505060405180910390f35b34801561055857600080fd5b5061057760048036038101908080359060200190929190505050612519565b604051808473ffffffffffffffffffffffffffffffffffffffff1673ffffffffffffffffffffffffffffffffffffffff168152602001838152602001828152602001935050505060405180910390f35b3480156105d357600080fd5b506105dc61274f565b6040518080602001828103825283818151815260200191508051906020019060200280838360005b8381101561061f578082015181840152602081019050610604565b505050509050019250505060405180910390f35b34801561063f57600080fd5b506106486127e4565b6040518080602001828103825283818151815260200191508051906020019060200280838360005b8381101561068b578082015181840152602081019050610670565b505050509050019250505060405180910390f35b3480156106ab57600080fd5b506106f86004803603810190808035600019169060200190929190803573ffffffffffffffffffffffffffffffffffffffff16906020019092919080359060200190929190505050612879565b005b34801561070657600080fd5b5061070f612c99565b6040518080602001828103825283818151815260200191508051906020019060200280838360005b83811015610752578082015181840152602081019050610737565b505050509050019250505060405180910390f35b34801561077257600080fd5b5061077b612d2e565b005b34801561078957600080fd5b506107a860048036038101908080359060200190929190505050612e30565b604051808215151515815260200191505060405180910390f35b3480156107ce57600080fd5b506107ed60048036038101908080359060200190929190505050612e45565b604051808473ffffffffffffffffffffffffffffffffffffffff1673ffffffffffffffffffffffffffffffffffffffff1681526020018360001916600019168152602001828152602001935050505060405180910390f35b34801561085157600080fd5b5061087060048036038101908080359060200190929190505050612e9e565b604051808215151515815260200191505060405180910390f35b34801561089657600080fd5b506108b560048036038101908080359060200190929190505050612eb3565b604051808215151515815260200191505060405180910390f35b3480156108db57600080fd5b506108e4612ec8565b604051808273ffffffffffffffffffffffffffffffffffffffff1673ffffffffffffffffffffffffffffffffffffffff16815260200191505060405180910390f35b34801561093257600080fd5b5061095f600480360381019080803560001916906020019092919080359060200190929190505050612eed565b005b34801561096d57600080fd5b5061098c600480360381019080803590602001909291905050506130ba565b604051808473ffffffffffffffffffffffffffffffffffffffff1673ffffffffffffffffffffffffffffffffffffffff168152602001838152602001828152602001935050505060405180910390f35b3480156109e857600080fd5b50610a3160048036038101908080359060200190929190803573ffffffffffffffffffffffffffffffffffffffff169060200190929190803590602001909291905050506132f0565b005b348015610a3f57600080fd5b50610a5e6004803603810190808035906020019092919050505061388c565b604051808215151515815260200191505060405180910390f35b348015610a8457600080fd5b50610aad60048036038101908080359060200190929190803590602001909291905050506138a1565b60405180826000191660001916815260200191505060405180910390f35b348015610ad757600080fd5b50610af6600480360381019080803590602001909291905050506138d1565b6040518080602001828103825283818151815260200191508051906020019060200280838360005b83811015610b39578082015181840152602081019050610b1e565b505050509050019250505060405180910390f35b348015610b5957600080fd5b50610b86600480360381019080803590602001908201803590602001919091929391929390505050613a21565b005b348015610b9457600080fd5b50610bb76004803603810190808035600019169060200190929190505050613c12565b6040518084815260200183815260200182151515158152602001935050505060405180910390f35b348015610beb57600080fd5b50610c2260048036038101908080359060200190929190803560001916906020019092919080359060200190929190505050613c49565b005b348015610c3057600080fd5b50610c39613f54565b6040518080602001828103825283818151815260200191508051906020019060200280838360005b83811015610c7c578082015181840152602081019050610c61565b505050509050019250505060405180910390f35b348015610c9c57600080fd5b50610cbb60048036038101908080359060200190929190505050613fe9565b604051808373ffffffffffffffffffffffffffffffffffffffff1673ffffffffffffffffffffffffffffffffffffffff16815260200180602001828103825283818151815260200191508051906020019080838360005b83811015610d2d578082015181840152602081019050610d12565b50505050905090810190601f168015610d5a5780820380516001836020036101000a031916815260200191505b50935050505060405180910390f35b348015610d7557600080fd5b50610db4600480360381019080803573ffffffffffffffffffffffffffffffffffffffff169060200190929190803590602001909291905050506140d4565b6040518082815260200191505060405180910390f35b348015610dd657600080fd5b50610df96004803603810190808035600019169060200190929190505050614104565b604051808215151515815260200191505060405180910390f35b348015610e1f57600080fd5b50610e3e60048036038101908080359060200190929190505050614139565b6040518080602001828103825283818151815260200191508051906020019060200280838360005b83811015610e81578082015181840152602081019050610e66565b505050509050019250505060405180910390f35b348015610ea157600080fd5b50610ed6600480360381019080803573ffffffffffffffffffffffffffffffffffffffff16906020019092919050505061428d565b005b81600181815481101515610ee857fe5b906000526020600020906002020160000160009054906101000a900473ffffffffffffffffffffffffffffffffffffffff1673ffffffffffffffffffffffffffffffffffffffff163373ffffffffffffffffffffffffffffffffffffffff16141515610fbc576040517f08c379a00000000000000000000000000000000000000000000000000000000081526004018080602001828103825260188152602001807f796f7520617265206e6f74206f776e6572206f6620636964000000000000000081525060200191505060405180910390fd5b81600184815481101515610fcc57fe5b90600052602060002090600202016001019080519060200190610ff09291906146e1565b507fd65e2ad9888084a38c2e252bf1157794ccf5dbcdc4756f5a53573692b35ef1d1338460018681548110151561102357fe5b9060005260206000209060020201600101604051808473ffffffffffffffffffffffffffffffffffffffff1673ffffffffffffffffffffffffffffffffffffffff168152602001838152602001806020018281038252838181546001816001161561010002031660029004815260200191508054600181600116156101000203166002900480156110f55780601f106110ca576101008083540402835291602001916110f5565b820191906000526020600020905b8154815290600101906020018083116110d857829003601f168201915b505094505050505060405180910390a1505050565b600080843373ffffffffffffffffffffffffffffffffffffffff1660028281548110151561113457fe5b906000526020600020906003020160000160009054906101000a900473ffffffffffffffffffffffffffffffffffffffff1673ffffffffffffffffffffffffffffffffffffffff161415156111f1576040517f08c379a000000000000000000000000000000000000000000000000000000000815260040180806020018281038252601d8152602001807f796f7520617265206e6f74206f776e6572206f662070546f6b656e496400000081525060200191505060405180910390fd5b848073ffffffffffffffffffffffffffffffffffffffff166006600083604051602001808273ffffffffffffffffffffffffffffffffffffffff1673ffffffffffffffffffffffffffffffffffffffff1681526020019150506040516020818303038152906040526040518082805190602001908083835b60208310151561128e5780518252602082019150602081019050602083039250611269565b6001836020036101000a03801982511681845116808217855250505050505090500191505060405180910390206000191660001916815260200190815260200160002060009054906101000a900473ffffffffffffffffffffffffffffffffffffffff1673ffffffffffffffffffffffffffffffffffffffff1614151561137d576040517f08c379a00000000000000000000000000000000000000000000000000000000081526004018080602001828103825260178152602001807f796f7520617265206e6f74206469737472696275746f7200000000000000000081525060200191505060405180910390fd5b61138687611a34565b15156113fa576040517f08c379a00000000000000000000000000000000000000000000000000000000081526004018080602001828103825260108152602001807f756e6b6e6f776e2070546f6b656e49640000000000000000000000000000000081525060200191505060405180910390fd5b611403876142f4565b935060028781548110151561141457fe5b90600052602060002090600302016002015484111515156114c3576040517f08c379a00000000000000000000000000000000000000000000000000000000081526004018080602001828103825260278152602001807f746f74616c20636f737420697320626967676572207468616e2070726f64756381526020017f742070726963650000000000000000000000000000000000000000000000000081525060400191505060405180910390fd5b600160036060604051908101604052808973ffffffffffffffffffffffffffffffffffffffff1681526020018a8152602001888152509080600181540180825580915050906001820390600052602060002090600302016000909192909190915060008201518160000160006101000a81548173ffffffffffffffffffffffffffffffffffffffff021916908373ffffffffffffffffffffffffffffffffffffffff16021790555060208201518160010155604082015181600201555050039250600c6000888152602001908152602001600020839080600181540180825580915050906001820390600052602060002001600090919290919091505550600d60008773ffffffffffffffffffffffffffffffffffffffff1673ffffffffffffffffffffffffffffffffffffffff1681526020019081526020016000208390806001815401808255809150509060018203906000526020600020016000909192909190915055507f44303cf4d6b496d4db7e6c8feefc76bef3db3e09353222d10ccaa2289c25ff8e86848988604051808573ffffffffffffffffffffffffffffffffffffffff1673ffffffffffffffffffffffffffffffffffffffff16815260200184815260200183815260200182815260200194505050505060405180910390a150505050505050565b6000809054906101000a900473ffffffffffffffffffffffffffffffffffffffff1673ffffffffffffffffffffffffffffffffffffffff163373ffffffffffffffffffffffffffffffffffffffff1614151561170957600080fd5b8073ffffffffffffffffffffffffffffffffffffffff166006600083604051602001808273ffffffffffffffffffffffffffffffffffffffff1673ffffffffffffffffffffffffffffffffffffffff1681526020019150506040516020818303038152906040526040518082805190602001908083835b6020831015156117a55780518252602082019150602081019050602083039250611780565b6001836020036101000a03801982511681845116808217855250505050505090500191505060405180910390206000191660001916815260200190815260200160002060009054906101000a900473ffffffffffffffffffffffffffffffffffffffff1673ffffffffffffffffffffffffffffffffffffffff1614151515611895576040517f08c379a000000000000000000000000000000000000000000000000000000000815260040180806020018281038252601c8152602001807f616c726561647920656e726f6c6c6564206469737472696275746f720000000081525060200191505060405180910390fd5b806006600083604051602001808273ffffffffffffffffffffffffffffffffffffffff1673ffffffffffffffffffffffffffffffffffffffff1681526020019150506040516020818303038152906040526040518082805190602001908083835b60208310151561191b57805182526020820191506020810190506020830392506118f6565b6001836020036101000a03801982511681845116808217855250505050505090500191505060405180910390206000191660001916815260200190815260200160002060006101000a81548173ffffffffffffffffffffffffffffffffffffffff021916908373ffffffffffffffffffffffffffffffffffffffff16021790555050565b6060600f60003373ffffffffffffffffffffffffffffffffffffffff1673ffffffffffffffffffffffffffffffffffffffff168152602001908152602001600020805480602002602001604051908101604052809291908181526020018280548015611a2a57602002820191906000526020600020905b815481526020019060010190808311611a16575b5050505050905090565b60006002805490506001830111159050919050565b600080611a5583611a34565b1515611ac9576040517f08c379a00000000000000000000000000000000000000000000000000000000081526004018080602001828103825260108152602001807f756e6b6e6f776e2070546f6b656e49640000000000000000000000000000000081525060200191505060405180910390fd5b34600284815481101515611ad957fe5b90600052602060002090600302016002015411151515611b87576040517f08c379a00000000000000000000000000000000000000000000000000000000081526004018080602001828103825260248152602001807f6d73672e76616c7565206973206c657373207468616e2070726f64756374207081526020017f726963650000000000000000000000000000000000000000000000000000000081525060400191505060405180910390fd5b600283815481101515611b9657fe5b90600052602060002090600302016002015491503373ffffffffffffffffffffffffffffffffffffffff166108fc8334039081150290604051600060405180830381858888f19350505050158015611bf2573d6000803e3d6000fd5b50600090505b600c600084815260200190815260200160002080549050811015611d6d576003600c600085815260200190815260200160002082815481101515611c3857fe5b9060005260206000200154815481101515611c4f57fe5b906000526020600020906003020160000160009054906101000a900473ffffffffffffffffffffffffffffffffffffffff1673ffffffffffffffffffffffffffffffffffffffff166108fc6003600c600087815260200190815260200160002084815481101515611cbc57fe5b9060005260206000200154815481101515611cd357fe5b9060005260206000209060030201600201549081150290604051600060405180830381858888f19350505050158015611d10573d6000803e3d6000fd5b506003600c600085815260200190815260200160002082815481101515611d3357fe5b9060005260206000200154815481101515611d4a57fe5b906000526020600020906003020160020154820391508080600101915050611bf8565b600090505b600e600084815260200190815260200160002080549050811015611ee7576004600e600085815260200190815260200160002082815481101515611db257fe5b9060005260206000200154815481101515611dc957fe5b906000526020600020906003020160000160009054906101000a900473ffffffffffffffffffffffffffffffffffffffff1673ffffffffffffffffffffffffffffffffffffffff166108fc6004600e600087815260200190815260200160002084815481101515611e3657fe5b9060005260206000200154815481101515611e4d57fe5b9060005260206000209060030201600201549081150290604051600060405180830381858888f19350505050158015611e8a573d6000803e3d6000fd5b506004600e600085815260200190815260200160002082815481101515611ead57fe5b9060005260206000200154815481101515611ec457fe5b906000526020600020906003020160020154820391508080600101915050611d72565b600283815481101515611ef657fe5b906000526020600020906003020160000160009054906101000a900473ffffffffffffffffffffffffffffffffffffffff1673ffffffffffffffffffffffffffffffffffffffff166108fc839081150290604051600060405180830381858888f19350505050158015611f6d573d6000803e3d6000fd5b50611f7a338460006143ff565b505050565b600080600083600581815481101515611f9457fe5b906000526020600020906003020160000160009054906101000a900473ffffffffffffffffffffffffffffffffffffffff1673ffffffffffffffffffffffffffffffffffffffff163373ffffffffffffffffffffffffffffffffffffffff16141515611fff57600080fd5b60058581548110151561200e57fe5b906000526020600020906003020160000160009054906101000a900473ffffffffffffffffffffffffffffffffffffffff1660058681548110151561204f57fe5b90600052602060002090600302016001015460058781548110151561207057fe5b906000526020600020906003020160020160009054906101000a900460ff16600281111561209a57fe5b935093509350509193909250565b6000809054906101000a900473ffffffffffffffffffffffffffffffffffffffff1673ffffffffffffffffffffffffffffffffffffffff163373ffffffffffffffffffffffffffffffffffffffff1614151561210357600080fd5b8073ffffffffffffffffffffffffffffffffffffffff166007600083604051602001808273ffffffffffffffffffffffffffffffffffffffff1673ffffffffffffffffffffffffffffffffffffffff1681526020019150506040516020818303038152906040526040518082805190602001908083835b60208310151561219f578051825260208201915060208101905060208303925061217a565b6001836020036101000a03801982511681845116808217855250505050505090500191505060405180910390206000191660001916815260200190815260200160002060009054906101000a900473ffffffffffffffffffffffffffffffffffffffff1673ffffffffffffffffffffffffffffffffffffffff161415151561228f576040517f08c379a00000000000000000000000000000000000000000000000000000000081526004018080602001828103825260208152602001807f616c726561647920656e726f6c6c6564207365617263682070726f766964657281525060200191505060405180910390fd5b806007600083604051602001808273ffffffffffffffffffffffffffffffffffffffff1673ffffffffffffffffffffffffffffffffffffffff1681526020019150506040516020818303038152906040526040518082805190602001908083835b60208310151561231557805182526020820191506020810190506020830392506122f0565b6001836020036101000a03801982511681845116808217855250505050505090500191505060405180910390206000191660001916815260200190815260200160002060006101000a81548173ffffffffffffffffffffffffffffffffffffffff021916908373ffffffffffffffffffffffffffffffffffffffff16021790555050565b6008602052816000526040600020818154811015156123b457fe5b90600052602060002001600091509150505481565b6060813373ffffffffffffffffffffffffffffffffffffffff166002828154811015156123f257fe5b906000526020600020906003020160000160009054906101000a900473ffffffffffffffffffffffffffffffffffffffff1673ffffffffffffffffffffffffffffffffffffffff161415156124af576040517f08c379a000000000000000000000000000000000000000000000000000000000815260040180806020018281038252601d8152602001807f796f7520617265206e6f74206f776e6572206f662070546f6b656e496400000081525060200191505060405180910390fd5b600e600084815260200190815260200160002080548060200260200160405190810160405280929190818152602001828054801561250c57602002820191906000526020600020905b8154815260200190600101908083116124f8575b5050505050915050919050565b6000806000833373ffffffffffffffffffffffffffffffffffffffff1660048281548110151561254557fe5b906000526020600020906003020160000160009054906101000a900473ffffffffffffffffffffffffffffffffffffffff1673ffffffffffffffffffffffffffffffffffffffff16148061262457503373ffffffffffffffffffffffffffffffffffffffff1660026004838154811015156125bc57fe5b9060005260206000209060030201600101548154811015156125da57fe5b906000526020600020906003020160000160009054906101000a900473ffffffffffffffffffffffffffffffffffffffff1673ffffffffffffffffffffffffffffffffffffffff16145b15156126be576040517f08c379a00000000000000000000000000000000000000000000000000000000081526004018080602001828103825260388152602001807f796f7520617265206e6f74207065726d697373696f6e656420746f207365652081526020017f7365617263682070726f766964657220636f6e7472616374000000000000000081525060400191505060405180910390fd5b6004858154811015156126cd57fe5b906000526020600020906003020160000160009054906101000a900473ffffffffffffffffffffffffffffffffffffffff1660048681548110151561270e57fe5b90600052602060002090600302016001015460048781548110151561272f57fe5b906000526020600020906003020160020154935093509350509193909250565b6060600860003373ffffffffffffffffffffffffffffffffffffffff1673ffffffffffffffffffffffffffffffffffffffff1681526020019081526020016000208054806020026020016040519081016040528092919081815260200182805480156127da57602002820191906000526020600020905b8154815260200190600101908083116127c6575b5050505050905090565b6060600d60003373ffffffffffffffffffffffffffffffffffffffff1673ffffffffffffffffffffffffffffffffffffffff16815260200190815260200160002080548060200260200160405190810160405280929190818152602001828054801561286f57602002820191906000526020600020905b81548152602001906001019080831161285b575b5050505050905090565b6000600960008560001916600019168152602001908152602001600020600001546001818154811015156128a957fe5b906000526020600020906002020160000160009054906101000a900473ffffffffffffffffffffffffffffffffffffffff1673ffffffffffffffffffffffffffffffffffffffff163373ffffffffffffffffffffffffffffffffffffffff1614151561297d576040517f08c379a00000000000000000000000000000000000000000000000000000000081526004018080602001828103825260188152602001807f796f7520617265206e6f74206f776e6572206f6620636964000000000000000081525060200191505060405180910390fd5b8460096000826000191660001916815260200190815260200160002060020160009054906101000a900460ff161515612a1e576040517f08c379a000000000000000000000000000000000000000000000000000000000815260040180806020018281038252601b8152602001807f7468697320636f6e74656e7473206973206e6f7420656e61626c65000000000081525060200191505060405180910390fd5b600960008760001916600019168152602001908152602001600020600101548410151515612ada576040517f08c379a00000000000000000000000000000000000000000000000000000000081526004018080602001828103825260268152602001807f70726f64756374207072696365206973206c657373207468616e206c6963656e81526020017f636520666565000000000000000000000000000000000000000000000000000081525060400191505060405180910390fd5b600160026060604051908101604052808873ffffffffffffffffffffffffffffffffffffffff16815260200189600019168152602001878152509080600181540180825580915050906001820390600052602060002090600302016000909192909190915060008201518160000160006101000a81548173ffffffffffffffffffffffffffffffffffffffff021916908373ffffffffffffffffffffffffffffffffffffffff16021790555060208201518160010190600019169055604082015181600201555050039250600b60008673ffffffffffffffffffffffffffffffffffffffff1673ffffffffffffffffffffffffffffffffffffffff1681526020019081526020016000208390806001815401808255809150509060018203906000526020600020016000909192909190915055507fd496e6eab8f40d8db352e569c6e871a63b4c84c916f50ba8ae96e7ab18a4be3585848887604051808573ffffffffffffffffffffffffffffffffffffffff1673ffffffffffffffffffffffffffffffffffffffff168152602001848152602001836000191660001916815260200182815260200194505050505060405180910390a1505050505050565b6060601060003373ffffffffffffffffffffffffffffffffffffffff1673ffffffffffffffffffffffffffffffffffffffff168152602001908152602001600020805480602002602001604051908101604052809291908181526020018280548015612d2457602002820191906000526020600020905b815481526020019060010190808311612d10575b5050505050905090565b6000809054906101000a900473ffffffffffffffffffffffffffffffffffffffff1673ffffffffffffffffffffffffffffffffffffffff163373ffffffffffffffffffffffffffffffffffffffff16141515612d8957600080fd5b6000809054906101000a900473ffffffffffffffffffffffffffffffffffffffff1673ffffffffffffffffffffffffffffffffffffffff167ff8df31144d9c2f0f6b59d69b8b98abd5459d07f2742c4df920b25aae33c6482060405160405180910390a260008060006101000a81548173ffffffffffffffffffffffffffffffffffffffff021916908373ffffffffffffffffffffffffffffffffffffffff160217905550565b60006005805490506001830111159050919050565b600281815481101515612e5457fe5b90600052602060002090600302016000915090508060000160009054906101000a900473ffffffffffffffffffffffffffffffffffffffff16908060010154908060020154905083565b60006003805490506001830111159050919050565b60006004805490506001830111159050919050565b6000809054906101000a900473ffffffffffffffffffffffffffffffffffffffff1681565b600080600181815481101515612eff57fe5b906000526020600020906002020160000160009054906101000a900473ffffffffffffffffffffffffffffffffffffffff1673ffffffffffffffffffffffffffffffffffffffff163373ffffffffffffffffffffffffffffffffffffffff16141515612fd3576040517f08c379a00000000000000000000000000000000000000000000000000000000081526004018080602001828103825260188152602001807f796f7520617265206e6f74206f776e6572206f6620636964000000000000000081525060200191505060405180910390fd5b60096000856000191660001916815260200190815260200160002060000154915060606040519081016040528083815260200184815260200160011515815250600960008660001916600019168152602001908152602001600020600082015181600001556020820151816001015560408201518160020160006101000a81548160ff0219169083151502179055509050507fdbd603a6e0db75ff6dbdc11470a3dd5f85792ffece70e3cb526129260811bb7a828585604051808481526020018360001916600019168152602001828152602001935050505060405180910390a150505050565b6000806000833373ffffffffffffffffffffffffffffffffffffffff166003828154811015156130e657fe5b906000526020600020906003020160000160009054906101000a900473ffffffffffffffffffffffffffffffffffffffff1673ffffffffffffffffffffffffffffffffffffffff1614806131c557503373ffffffffffffffffffffffffffffffffffffffff16600260038381548110151561315d57fe5b90600052602060002090600302016001015481548110151561317b57fe5b906000526020600020906003020160000160009054906101000a900473ffffffffffffffffffffffffffffffffffffffff1673ffffffffffffffffffffffffffffffffffffffff16145b151561325f576040517f08c379a00000000000000000000000000000000000000000000000000000000081526004018080602001828103825260358152602001807f796f7520617265206e6f74207065726d697373696f6e656420746f207365652081526020017f646973747269627574696f6e20636f6e7472616374000000000000000000000081525060400191505060405180910390fd5b60038581548110151561326e57fe5b906000526020600020906003020160000160009054906101000a900473ffffffffffffffffffffffffffffffffffffffff166003868154811015156132af57fe5b9060005260206000209060030201600101546003878154811015156132d057fe5b906000526020600020906003020160020154935093509350509193909250565b600080843373ffffffffffffffffffffffffffffffffffffffff1660028281548110151561331a57fe5b906000526020600020906003020160000160009054906101000a900473ffffffffffffffffffffffffffffffffffffffff1673ffffffffffffffffffffffffffffffffffffffff161415156133d7576040517f08c379a000000000000000000000000000000000000000000000000000000000815260040180806020018281038252601d8152602001807f796f7520617265206e6f74206f776e6572206f662070546f6b656e496400000081525060200191505060405180910390fd5b848073ffffffffffffffffffffffffffffffffffffffff166007600083604051602001808273ffffffffffffffffffffffffffffffffffffffff1673ffffffffffffffffffffffffffffffffffffffff1681526020019150506040516020818303038152906040526040518082805190602001908083835b602083101515613474578051825260208201915060208101905060208303925061344f565b6001836020036101000a03801982511681845116808217855250505050505090500191505060405180910390206000191660001916815260200190815260200160002060009054906101000a900473ffffffffffffffffffffffffffffffffffffffff1673ffffffffffffffffffffffffffffffffffffffff16141515613563576040517f08c379a000000000000000000000000000000000000000000000000000000000815260040180806020018281038252601b8152602001807f796f7520617265206e6f74207365617263682070726f7669646572000000000081525060200191505060405180910390fd5b61356c87611a34565b15156135e0576040517f08c379a00000000000000000000000000000000000000000000000000000000081526004018080602001828103825260108152602001807f756e6b6e6f776e2070546f6b656e49640000000000000000000000000000000081525060200191505060405180910390fd5b6135e9876142f4565b93506002878154811015156135fa57fe5b90600052602060002090600302016002015484111515156136a9576040517f08c379a00000000000000000000000000000000000000000000000000000000081526004018080602001828103825260278152602001807f746f74616c20636f737420697320626967676572207468616e2070726f64756381526020017f742070726963650000000000000000000000000000000000000000000000000081525060400191505060405180910390fd5b600160046060604051908101604052808973ffffffffffffffffffffffffffffffffffffffff1681526020018a8152602001888152509080600181540180825580915050906001820390600052602060002090600302016000909192909190915060008201518160000160006101000a81548173ffffffffffffffffffffffffffffffffffffffff021916908373ffffffffffffffffffffffffffffffffffffffff16021790555060208201518160010155604082015181600201555050039250600e6000888152602001908152602001600020839080600181540180825580915050906001820390600052602060002001600090919290919091505550600f60008773ffffffffffffffffffffffffffffffffffffffff1673ffffffffffffffffffffffffffffffffffffffff1681526020019081526020016000208390806001815401808255809150509060018203906000526020600020016000909192909190915055507fa7c278a76267205d3f7e075d44dcebfb087234e1afd10c6958e5b94db0110f19868887604051808473ffffffffffffffffffffffffffffffffffffffff1673ffffffffffffffffffffffffffffffffffffffff168152602001838152602001828152602001935050505060405180910390a150505050505050565b60006001805490506001830111159050919050565b600a602052816000526040600020818154811015156138bc57fe5b90600052602060002001600091509150505481565b6060813373ffffffffffffffffffffffffffffffffffffffff166002828154811015156138fa57fe5b906000526020600020906003020160000160009054906101000a900473ffffffffffffffffffffffffffffffffffffffff1673ffffffffffffffffffffffffffffffffffffffff161415156139b7576040517f08c379a000000000000000000000000000000000000000000000000000000000815260040180806020018281038252601d8152602001807f796f7520617265206e6f74206f776e6572206f662070546f6b656e496400000081525060200191505060405180910390fd5b600c6000848152602001908152602001600020805480602002602001604051908101604052809291908181526020018280548015613a1457602002820191906000526020600020905b815481526020019060010190808311613a00575b5050505050915050919050565b600060018060408051908101604052803373ffffffffffffffffffffffffffffffffffffffff16815260200186868080601f0160208091040260200160405190810160405280939291908181526020018383808284378201915050505050508152509080600181540180825580915050906001820390600052602060002090600202016000909192909190915060008201518160000160006101000a81548173ffffffffffffffffffffffffffffffffffffffff021916908373ffffffffffffffffffffffffffffffffffffffff1602179055506020820151816001019080519060200190613b11929190614761565b505050039050600860003373ffffffffffffffffffffffffffffffffffffffff1673ffffffffffffffffffffffffffffffffffffffff1681526020019081526020016000208190806001815401808255809150509060018203906000526020600020016000909192909190915055507f6f9b3bbe5f213ee7243d1c48ab7ddadb31ce7de515d0f3ea89b32820ede0ae5933828585604051808573ffffffffffffffffffffffffffffffffffffffff1673ffffffffffffffffffffffffffffffffffffffff16815260200184815260200180602001828103825284848281815260200192508082843782019150509550505050505060405180910390a1505050565b60096020528060005260406000206000915090508060000154908060010154908060020160009054906101000a900460ff16905083565b82600181815481101515613c5957fe5b906000526020600020906002020160000160009054906101000a900473ffffffffffffffffffffffffffffffffffffffff1673ffffffffffffffffffffffffffffffffffffffff163373ffffffffffffffffffffffffffffffffffffffff16141515613d2d576040517f08c379a00000000000000000000000000000000000000000000000000000000081526004018080602001828103825260188152602001807f796f7520617265206e6f74206f776e6572206f6620636964000000000000000081525060200191505060405180910390fd5b613d368461388c565b1515613daa576040517f08c379a000000000000000000000000000000000000000000000000000000000815260040180806020018281038252600c8152602001807f756e6b6e6f776e2064617461000000000000000000000000000000000000000081525060200191505060405180910390fd5b60096000846000191660001916815260200190815260200160002060020160009054906101000a900460ff16151515613e4b576040517f08c379a00000000000000000000000000000000000000000000000000000000081526004018080602001828103825260138152602001807f6861736820616c7265616479206578697374730000000000000000000000000081525060200191505060405180910390fd5b60606040519081016040528085815260200183815260200160011515815250600960008560001916600019168152602001908152602001600020600082015181600001556020820151816001015560408201518160020160006101000a81548160ff021916908315150217905550905050600a60008581526020019081526020016000208390806001815401808255809150509060018203906000526020600020016000909192909190915090600019169055507f05403f3f5a9832b1c9d045335feee69bf5f0ecc879b0466673f263fe1b823046848484604051808481526020018360001916600019168152602001828152602001935050505060405180910390a150505050565b6060600b60003373ffffffffffffffffffffffffffffffffffffffff1673ffffffffffffffffffffffffffffffffffffffff168152602001908152602001600020805480602002602001604051908101604052809291908181526020018280548015613fdf57602002820191906000526020600020905b815481526020019060010190808311613fcb575b5050505050905090565b600181815481101515613ff857fe5b90600052602060002090600202016000915090508060000160009054906101000a900473ffffffffffffffffffffffffffffffffffffffff1690806001018054600181600116156101000203166002900480601f0160208091040260200160405190810160405280929190818152602001828054600181600116156101000203166002900480156140ca5780601f1061409f576101008083540402835291602001916140ca565b820191906000526020600020905b8154815290600101906020018083116140ad57829003601f168201915b5050505050905082565b600b602052816000526040600020818154811015156140ef57fe5b90600052602060002001600091509150505481565b600060096000836000191660001916815260200190815260200160002060020160009054906101000a900460ff169050919050565b60608160018181548110151561414b57fe5b906000526020600020906002020160000160009054906101000a900473ffffffffffffffffffffffffffffffffffffffff1673ffffffffffffffffffffffffffffffffffffffff163373ffffffffffffffffffffffffffffffffffffffff1614151561421f576040517f08c379a00000000000000000000000000000000000000000000000000000000081526004018080602001828103825260188152602001807f796f7520617265206e6f74206f776e6572206f6620636964000000000000000081525060200191505060405180910390fd5b600a600084815260200190815260200160002080548060200260200160405190810160405280929190818152602001828054801561428057602002820191906000526020600020905b81546000191681526020019060010190808311614268575b5050505050915050919050565b6000809054906101000a900473ffffffffffffffffffffffffffffffffffffffff1673ffffffffffffffffffffffffffffffffffffffff163373ffffffffffffffffffffffffffffffffffffffff161415156142e857600080fd5b6142f1816145e7565b50565b60008060009150600090505b600c60008481526020019081526020016000208054905081101561437a576003600c60008581526020019081526020016000208281548110151561434057fe5b906000526020600020015481548110151561435757fe5b906000526020600020906003020160020154820191508080600101915050614300565b600090505b600e6000848152602001908152602001600020805490508110156143f9576004600e6000858152602001908152602001600020828154811015156143bf57fe5b90600052602060002001548154811015156143d657fe5b90600052602060002090600302016002015482019150808060010191505061437f565b50919050565b6000600160056060604051908101604052808773ffffffffffffffffffffffffffffffffffffffff16815260200186815260200185600281111561443f57fe5b8152509080600181540180825580915050906001820390600052602060002090600302016000909192909190915060008201518160000160006101000a81548173ffffffffffffffffffffffffffffffffffffffff021916908373ffffffffffffffffffffffffffffffffffffffff1602179055506020820151816001015560408201518160020160006101000a81548160ff021916908360028111156144e257fe5b02179055505050039050601060008573ffffffffffffffffffffffffffffffffffffffff1673ffffffffffffffffffffffffffffffffffffffff1681526020019081526020016000208190806001815401808255809150509060018203906000526020600020016000909192909190915055507fbca2a65e915129b3b540aa6168e921bda31a8042a0968a50413196664a5a257884828585600281111561458557fe5b604051808573ffffffffffffffffffffffffffffffffffffffff1673ffffffffffffffffffffffffffffffffffffffff1681526020018481526020018381526020018260ff1660ff16815260200194505050505060405180910390a150505050565b600073ffffffffffffffffffffffffffffffffffffffff168173ffffffffffffffffffffffffffffffffffffffff161415151561462357600080fd5b8073ffffffffffffffffffffffffffffffffffffffff166000809054906101000a900473ffffffffffffffffffffffffffffffffffffffff1673ffffffffffffffffffffffffffffffffffffffff167f8be0079c531659141344cd1fd0a4f28419497f9722a3daafe3b4186f6b6457e060405160405180910390a3806000806101000a81548173ffffffffffffffffffffffffffffffffffffffff021916908373ffffffffffffffffffffffffffffffffffffffff16021790555050565b828054600181600116156101000203166002900490600052602060002090601f016020900481019282601f1061472257805160ff1916838001178555614750565b82800160010185558215614750579182015b8281111561474f578251825591602001919060010190614734565b5b50905061475d91906147e1565b5090565b828054600181600116156101000203166002900490600052602060002090601f016020900481019282601f106147a257805160ff19168380011785556147d0565b828001600101855582156147d0579182015b828111156147cf5782518255916020019190600101906147b4565b5b5090506147dd91906147e1565b5090565b61480391905b808211156147ff5760008160009055506001016147e7565b5090565b905600a165627a7a72305820e331be6d7d528fe136eb83f0e81cae5a177806f1e29acfe14c6253183baad8920029",
  "source": "pragma solidity ^0.4.24;\n\nimport \"./BFactory.sol\";\n// import \"./Core/ERC721Z/ERC721ZToken.sol\";\nimport \"./Interfaces/ERC721Z.sol\";\n\ncontract BToken is BFactory {\n\n  // register contents\n  function enrollDistributor(address distributor) external onlyOwner {\n    require(Distributors[keccak256(abi.encode(distributor))] != distributor, \"already enrolled distributor\");\n    Distributors[keccak256(abi.encode(distributor))] = distributor;\n  }\n\n  function enrollSearchProvider(address searchProvider) external onlyOwner {\n    require(SearchProviders[keccak256(abi.encode(searchProvider))] != searchProvider, \"already enrolled search provider\");\n    SearchProviders[keccak256(abi.encode(searchProvider))] = searchProvider;\n  }\n\n  function registerData(string titLe) external {\n    uint cid = _Ds.push(Data_(msg.sender, titLe)) - 1;\n    Provider2CIDs[msg.sender].push(cid);\n    emit NewData(msg.sender, cid, titLe);\n  }\n\n  function registerHash(uint cid, bytes32 hash, uint fee) external onlyProviderOf(cid) {\n    require(existsD(cid), \"unknown data\");\n    require(!Hash2Contents[hash]._Enable, 'hash already exists');\n    Hash2Contents[hash] = Contents_(cid, fee, true);\n    CID2Hashes[cid].push(hash);\n    emit NewHash(cid, hash, fee);\n  }\n\n  function registerProduct(bytes32 hash, address seller, uint value) external onlyProviderOf(Hash2Contents[hash]._Cid) onlyEnableContentsOf(hash){\n    require(value >= Hash2Contents[hash]._Fee, \"product price is less than licence fee\");\n    uint pTokenId = _PTs.push(PToken_(seller, hash, value)) - 1;\n    Owner2PTokenIds[seller].push(pTokenId);\n    emit NewPToken(seller, pTokenId, hash, value);\n  }\n\n  function getContractsTotalCost(uint pTokenId) view internal returns(uint totalCost) {\n    totalCost = 0;\n    for(uint i = 0; i < PTokenId2DistConIds[pTokenId].length; i++) {\n      totalCost += _DCs[PTokenId2DistConIds[pTokenId][i]]._Cost;\n    }\n    for(i = 0; i < PTokenId2SearchConIds[pTokenId].length; i++) {\n      totalCost += _SCs[PTokenId2SearchConIds[pTokenId][i]]._Cost;\n    }\n  }\n\n  function distContract(uint pTokenId, address distributor, uint cost) external onlyPTokenOwnerOf(pTokenId) onlyDistributorOf(distributor) {\n    require(existsP(pTokenId), \"unknown pTokenId\");\n    uint totalCost = getContractsTotalCost(pTokenId);\n    require(totalCost <= _PTs[pTokenId]._Price, \"total cost is bigger than product price\");\n    uint dcIndex = _DCs.push(DistCon_(distributor, pTokenId, cost)) - 1;\n    PTokenId2DistConIds[pTokenId].push(dcIndex);\n    Owner2DistConIds[distributor].push(dcIndex);\n    emit NewDistContract(distributor, dcIndex, pTokenId, cost);\n  }\n\n  function searchContract(uint pTokenId, address searchProvider, uint cost) external onlyPTokenOwnerOf(pTokenId) onlySearchProviderOf(searchProvider) {\n    require(existsP(pTokenId), \"unknown pTokenId\");\n    uint totalCost = getContractsTotalCost(pTokenId);\n    require(totalCost <= _PTs[pTokenId]._Price, \"total cost is bigger than product price\");\n    uint scIndex = _SCs.push(SearchCon_(searchProvider, pTokenId, cost)) - 1;\n    PTokenId2SearchConIds[pTokenId].push(scIndex);\n    Owner2SearchConIds[searchProvider].push(scIndex);\n    emit NewSearchContract(searchProvider, pTokenId, cost);\n  }\n\n  function buyToken(uint pTokenId) payable external {\n    require(existsP(pTokenId), \"unknown pTokenId\");\n    require(_PTs[pTokenId]._Price <= msg.value, \"msg.value is less than product price\");\n    uint totalCost = _PTs[pTokenId]._Price;\n    msg.sender.transfer(msg.value - totalCost);\n    for(uint i = 0; i < PTokenId2DistConIds[pTokenId].length; i++) {\n      _DCs[PTokenId2DistConIds[pTokenId][i]]._Distributor.transfer(_DCs[PTokenId2DistConIds[pTokenId][i]]._Cost);\n      totalCost -= _DCs[PTokenId2DistConIds[pTokenId][i]]._Cost;\n    }\n    for(i = 0; i < PTokenId2SearchConIds[pTokenId].length; i++) {\n      _SCs[PTokenId2SearchConIds[pTokenId][i]]._SearchProvider.transfer(_SCs[PTokenId2SearchConIds[pTokenId][i]]._Cost);\n      totalCost -= _SCs[PTokenId2SearchConIds[pTokenId][i]]._Cost;\n    }\n    _PTs[pTokenId]._Owner.transfer(totalCost);\n    createUToken(msg.sender, pTokenId, UTokenState_.sold);\n  }\n}\n",
  "sourcePath": "/home/ether/ethereum/ProjectB/TruffLeBToken/contracts/BToken.sol",
  "compiler": {
    "name": "solc",
    "version": "0.4.25+commit.59dbf8f1.Emscripten.clang"
  },
  "schemaVersion": "2.0.2",
  "updatedAt": "2019-03-25T07:09:53.159Z"
}